Component: ARM Compiler 5.06 update 5 (build 528) Tool: armlink [4d35e2]

==============================================================================

Section Cross References

    startup_stm32f411xe.o(RESET) refers to startup_stm32f411xe.o(STACK) for __initial_sp
    startup_stm32f411xe.o(RESET) refers to startup_stm32f411xe.o(.text) for Reset_Handler
    startup_stm32f411xe.o(RESET) refers to stm32f4xx_it.o(i.NMI_Handler) for NMI_Handler
    startup_stm32f411xe.o(RESET) refers to stm32f4xx_it.o(i.HardFault_Handler) for HardFault_Handler
    startup_stm32f411xe.o(RESET) refers to stm32f4xx_it.o(i.MemManage_Handler) for MemManage_Handler
    startup_stm32f411xe.o(RESET) refers to stm32f4xx_it.o(i.BusFault_Handler) for BusFault_Handler
    startup_stm32f411xe.o(RESET) refers to stm32f4xx_it.o(i.UsageFault_Handler) for UsageFault_Handler
    startup_stm32f411xe.o(RESET) refers to stm32f4xx_it.o(i.SVC_Handler) for SVC_Handler
    startup_stm32f411xe.o(RESET) refers to stm32f4xx_it.o(i.DebugMon_Handler) for DebugMon_Handler
    startup_stm32f411xe.o(RESET) refers to stm32f4xx_it.o(i.PendSV_Handler) for PendSV_Handler
    startup_stm32f411xe.o(RESET) refers to stm32f4xx_it.o(i.SysTick_Handler) for SysTick_Handler
    startup_stm32f411xe.o(RESET) refers to stm32f4xx_it.o(i.TIM1_UP_TIM10_IRQHandler) for TIM1_UP_TIM10_IRQHandler
    startup_stm32f411xe.o(RESET) refers to stm32f4xx_it.o(i.OTG_FS_IRQHandler) for OTG_FS_IRQHandler
    startup_stm32f411xe.o(.text) refers to system_stm32f4xx.o(i.SystemInit) for SystemInit
    startup_stm32f411xe.o(.text) refers to entry.o(.ARM.Collect$$$$00000000) for __main
    usbd_ioreq.o(i.USBD_CtlContinueRx) refers to usbd_conf.o(i.USBD_LL_PrepareReceive) for USBD_LL_PrepareReceive
    usbd_ioreq.o(i.USBD_CtlContinueSendData) refers to usbd_conf.o(i.USBD_LL_Transmit) for USBD_LL_Transmit
    usbd_ioreq.o(i.USBD_CtlPrepareRx) refers to usbd_conf.o(i.USBD_LL_PrepareReceive) for USBD_LL_PrepareReceive
==============================================================================

Removing Unused input sections from the image.

    Removing usbd_ioreq.o(.rev16_text), (4 bytes).
    Removing usbd_ioreq.o(.revsh_text), (4 bytes).
    Removing usbd_ioreq.o(.rrx_text), (6 bytes).
    Removing usbd_ioreq.o(i.USBD_GetRxCount), (10 bytes).
    Removing usbd_cdc.o(.rev16_text), (4 bytes).
    Removing usbd_cdc.o(.revsh_text), (4 bytes).
    Removing usbd_cdc.o(.rrx_text), (6 bytes).
    Removing usbd_ctlreq.o(.rev16_text), (4 bytes).
    Removing usbd_ctlreq.o(.revsh_text), (4 bytes).
    Removing usbd_ctlreq.o(.rrx_text), (6 bytes).
    Removing usbd_core.o(.rev16_text), (4 bytes).
    Removing usbd_core.o(.revsh_text), (4 bytes).
    Removing usbd_core.o(.rrx_text), (6 bytes).
    Removing usbd_core.o(i.USBD_DeInit), (38 bytes).
    Removing usbd_core.o(i.USBD_RunTestMode), (4 bytes).
    Removing usbd_core.o(i.USBD_Stop), (26 bytes).
    Removing usb_device.o(.rev16_text), (4 bytes).
    Removing usb_device.o(.revsh_text), (4 bytes).
==============================================================================

Image Symbol Table

    Local Symbols

    Symbol Name                              Value     Ov Type        Size  Object(Section)

    ..//Src/system_stm32f4xx.c               0x00000000   Number         0  system_stm32f4xx.o ABSOLUTE
    ../Drivers/STM32F4xx_HAL_Driver/Src/stm32f4xx_hal.c 0x00000000   Number         0  stm32f4xx_hal.o ABSOLUTE
    ../Drivers/STM32F4xx_HAL_Driver/Src/stm32f4xx_hal_cortex.c 0x00000000   Number         0  stm32f4xx_hal_cortex.o ABSOLUTE
    ../Drivers/STM32F4xx_HAL_Driver/Src/stm32f4xx_hal_dma.c 0x00000000   Number         0  stm32f4xx_hal_dma.o ABSOLUTE
    ../Drivers/STM32F4xx_HAL_Driver/Src/stm32f4xx_hal_dma_ex.c 0x00000000   Number         0  stm32f4xx_hal_dma_ex.o ABSOLUTE
    ../Drivers/STM32F4xx_HAL_Driver/Src/stm32f4xx_hal_flash.c 0x00000000   Number         0  stm32f4xx_hal_flash.o ABSOLUTE
    ../Drivers/STM32F4xx_HAL_Driver/Src/stm32f4xx_hal_flash_ex.c 0x00000000   Number         0  stm32f4xx_hal_flash_ex.o ABSOLUTE
    ../Drivers/STM32F4xx_HAL_Driver/Src/stm32f4xx_hal_flash_ramfunc.c 0x00000000   Number         0  stm32f4xx_hal_flash_ramfunc.o ABSOLUTE
    ../Drivers/STM32F4xx_HAL_Driver/Src/stm32f4xx_hal_gpio.c 0x00000000   Number         0  stm32f4xx_hal_gpio.o ABSOLUTE
    ../Drivers/STM32F4xx_HAL_Driver/Src/stm32f4xx_hal_pcd.c 0x00000000   Number         0  stm32f4xx_hal_pcd.o ABSOLUTE
    ../Drivers/STM32F4xx_HAL_Driver/Src/stm32f4xx_hal_pcd_ex.c 0x00000000   Number         0  stm32f4xx_hal_pcd_ex.o ABSOLUTE
    ../Drivers/STM32F4xx_HAL_Driver/Src/stm32f4xx_hal_pwr.c 0x00000000   Number         0  stm32f4xx_hal_pwr.o ABSOLUTE
    ../Drivers/STM32F4xx_HAL_Driver/Src/stm32f4xx_hal_pwr_ex.c 0x00000000   Number         0  stm32f4xx_hal_pwr_ex.o ABSOLUTE
    ../Drivers/STM32F4xx_HAL_Driver/Src/stm32f4xx_hal_rcc.c 0x00000000   Number         0  stm32f4xx_hal_rcc.o ABSOLUTE
    ../Drivers/STM32F4xx_HAL_Driver/Src/stm32f4xx_hal_rcc_ex.c 0x00000000   Number         0  stm32f4xx_hal_rcc_ex.o ABSOLUTE
    ../Drivers/STM32F4xx_HAL_Driver/Src/stm32f4xx_hal_tim.c 0x00000000   Number         0  stm32f4xx_hal_tim.o ABSOLUTE
    ../Drivers/STM32F4xx_HAL_Driver/Src/stm32f4xx_hal_tim_ex.c 0x00000000   Number         0  stm32f4xx_hal_tim_ex.o ABSOLUTE
    ../Drivers/STM32F4xx_HAL_Driver/Src/stm32f4xx_ll_usb.c 0x00000000   Number         0  stm32f4xx_ll_usb.o ABSOLUTE
    ../Middlewares/ST/STM32_USB_Device_Library/Class/CDC/Src/usbd_cdc.c 0x00000000   Number         0  usbd_cdc.o ABSOLUTE
    ../Middlewares/ST/STM32_USB_Device_Library/Core/Src/usbd_core.c 0x00000000   Number         0  usbd_core.o ABSOLUTE
    ../Middlewares/ST/STM32_USB_Device_Library/Core/Src/usbd_ctlreq.c 0x00000000   Number         0  usbd_ctlreq.o ABSOLUTE
    ../Middlewares/ST/STM32_USB_Device_Library/Core/Src/usbd_ioreq.c 0x00000000   Number         0  usbd_ioreq.o ABSOLUTE
    ../Src/gpio.c                            0x00000000   Number         0  gpio.o ABSOLUTE
    ../Src/main.c                            0x00000000   Number         0  main.o ABSOLUTE
    ../Src/stm32f4xx_hal_msp.c               0x00000000   Number         0  stm32f4xx_hal_msp.o ABSOLUTE
    ../Src/stm32f4xx_it.c                    0x00000000   Number         0  stm32f4xx_it.o ABSOLUTE
    ../Src/tim.c                             0x00000000   Number         0  tim.o ABSOLUTE
    ../Src/usb_device.c                      0x00000000   Number         0  usb_device.o ABSOLUTE
    ../Src/usbd_cdc_if.c                     0x00000000   Number         0  usbd_cdc_if.o ABSOLUTE
    ../Src/usbd_conf.c                       0x00000000   Number         0  usbd_conf.o ABSOLUTE
    ../Src/usbd_desc.c                       0x00000000   Number         0  usbd_desc.o ABSOLUTE
    ../clib/../cmprslib/lz77c.c              0x00000000   Number         0  __dclz77c.o ABSOLUTE
    ../clib/microlib/ctype/ctype.c           0x00000000   Number         0  isspace_c.o ABSOLUTE
    ../clib/microlib/ctype/ctype.c           0x00000000   Number         0  ctype_c.o ABSOLUTE
    ../clib/microlib/division.c              0x00000000   Number         0  uidiv.o ABSOLUTE
    ../clib/microlib/division.c              0x00000000   Number         0  uldiv.o ABSOLUTE
    ../clib/microlib/init/entry.s            0x00000000   Number         0  entry8a.o ABSOLUTE
    ../clib/microlib/init/entry.s            0x00000000   Number         0  entry8b.o ABSOLUTE
    ../clib/microlib/init/entry.s            0x00000000   Number         0  entry9a.o ABSOLUTE
    ../clib/microlib/init/entry.s            0x00000000   Number         0  entry9b.o ABSOLUTE
    ../clib/microlib/init/entry.s            0x00000000   Number         0  entry10a.o ABSOLUTE
    ../clib/microlib/init/entry.s            0x00000000   Number         0  entry.o ABSOLUTE
    ../clib/microlib/init/entry.s            0x00000000   Number         0  entry10b.o ABSOLUTE
    ../clib/microlib/init/entry.s            0x00000000   Number         0  entry2.o ABSOLUTE
    ../clib/microlib/init/entry.s            0x00000000   Number         0  entry11a.o ABSOLUTE
    ../clib/microlib/init/entry.s            0x00000000   Number         0  entry5.o ABSOLUTE
    ../clib/microlib/init/entry.s            0x00000000   Number         0  entry7a.o ABSOLUTE
    ../clib/microlib/init/entry.s            0x00000000   Number         0  entry7b.o ABSOLUTE
    ../clib/microlib/init/entry.s            0x00000000   Number         0  entry11b.o ABSOLUTE
    ../clib/microlib/longlong.c              0x00000000   Number         0  llushr.o ABSOLUTE
    ../clib/microlib/longlong.c              0x00000000   Number         0  llsshr.o ABSOLUTE
    ../clib/microlib/longlong.c              0x00000000   Number         0  llshl.o ABSOLUTE
    ../clib/microlib/malloc/malloc.c         0x00000000   Number         0  mallocra.o ABSOLUTE
    ../clib/microlib/malloc/malloc.c         0x00000000   Number         0  mallocr.o ABSOLUTE
    ../clib/microlib/malloc/malloc.c         0x00000000   Number         0  malloca.o ABSOLUTE
    ../clib/microlib/malloc/malloc.c         0x00000000   Number         0  malloc.o ABSOLUTE
    ../clib/microlib/malloc/mvars.c          0x00000000   Number         0  mvars.o ABSOLUTE
    ../clib/microlib/printf/printf.c         0x00000000   Number         0  printf2.o ABSOLUTE
    ../clib/microlib/printf/printf.c         0x00000000   Number         0  printf3.o ABSOLUTE
    ../clib/microlib/printf/printf.c         0x00000000   Number         0  printf4.o ABSOLUTE
    ../clib/microlib/printf/printf.c         0x00000000   Number         0  printf5.o ABSOLUTE
    ../clib/microlib/printf/printf.c         0x00000000   Number         0  printf7.o ABSOLUTE
    ../clib/microlib/printf/printf.c         0x00000000   Number         0  printf8.o ABSOLUTE
    ../clib/microlib/printf/printf.c         0x00000000   Number         0  printfa.o ABSOLUTE
    ../clib/microlib/printf/printf.c         0x00000000   Number         0  printf0.o ABSOLUTE
    ../clib/microlib/printf/printf.c         0x00000000   Number         0  printf6.o ABSOLUTE
    ../clib/microlib/printf/printf.c         0x00000000   Number         0  printf1.o ABSOLUTE
    ../clib/microlib/printf/printf.c         0x00000000   Number         0  printfb.o ABSOLUTE
    ../clib/microlib/printf/stubs.s          0x00000000   Number         0  stubs.o ABSOLUTE
    ../clib/microlib/stdio/fputc.c           0x00000000   Number         0  fputc.o ABSOLUTE
    ../clib/microlib/stdio/semi.s            0x00000000   Number         0  semi.o ABSOLUTE
    ../clib/microlib/stdio/streams.c         0x00000000   Number         0  stdout.o ABSOLUTE
    ../clib/microlib/string/memcpy.c         0x00000000   Number         0  memcpyb.o ABSOLUTE
    ../clib/microlib/string/memcpy.c         0x00000000   Number         0  memcpya.o ABSOLUTE
    ../clib/microlib/stubs.s                 0x00000000   Number         0  iusesemip.o ABSOLUTE
    ../clib/microlib/stubs.s                 0x00000000   Number         0  iusefp.o ABSOLUTE
    ../clib/scanf.c                          0x00000000   Number         0  __0sscanf.o ABSOLUTE
    ../clib/scanf.c                          0x00000000   Number         0  _scanf_int.o ABSOLUTE
    ../clib/scanf.c                          0x00000000   Number         0  _scanf_str.o ABSOLUTE
    ../clib/scanf.c                          0x00000000   Number         0  _chval.o ABSOLUTE
    ../clib/scanf.c                          0x00000000   Number         0  _scanf.o ABSOLUTE
    ../clib/scanf.c                          0x00000000   Number         0  scanf_char.o ABSOLUTE
    ../clib/scanf.c                          0x00000000   Number         0  _sgetc.o ABSOLUTE
    ../fplib/microlib/fpadd.c                0x00000000   Number         0  dadd.o ABSOLUTE
    ../fplib/microlib/fpdiv.c                0x00000000   Number         0  ddiv.o ABSOLUTE
    ../fplib/microlib/fpepilogue.c           0x00000000   Number         0  depilogue.o ABSOLUTE
    ../fplib/microlib/fpfix.c                0x00000000   Number         0  dfixul.o ABSOLUTE
    ../fplib/microlib/fpmul.c                0x00000000   Number         0  dmul.o ABSOLUTE
    ..\Drivers\STM32F4xx_HAL_Driver\Src\stm32f4xx_hal.c 0x00000000   Number         0  stm32f4xx_hal.o ABSOLUTE
    ..\Drivers\STM32F4xx_HAL_Driver\Src\stm32f4xx_hal_cortex.c 0x00000000   Number         0  stm32f4xx_hal_cortex.o ABSOLUTE
    ..\Drivers\STM32F4xx_HAL_Driver\Src\stm32f4xx_hal_dma.c 0x00000000   Number         0  stm32f4xx_hal_dma.o ABSOLUTE
    ..\Drivers\STM32F4xx_HAL_Driver\Src\stm32f4xx_hal_dma_ex.c 0x00000000   Number         0  stm32f4xx_hal_dma_ex.o ABSOLUTE
    ..\Drivers\STM32F4xx_HAL_Driver\Src\stm32f4xx_hal_flash.c 0x00000000   Number         0  stm32f4xx_hal_flash.o ABSOLUTE
    ..\Drivers\STM32F4xx_HAL_Driver\Src\stm32f4xx_hal_flash_ex.c 0x00000000   Number         0  stm32f4xx_hal_flash_ex.o ABSOLUTE
    ..\Drivers\STM32F4xx_HAL_Driver\Src\stm32f4xx_hal_flash_ramfunc.c 0x00000000   Number         0  stm32f4xx_hal_flash_ramfunc.o ABSOLUTE
    ..\Drivers\STM32F4xx_HAL_Driver\Src\stm32f4xx_hal_gpio.c 0x00000000   Number         0  stm32f4xx_hal_gpio.o ABSOLUTE
    ..\Drivers\STM32F4xx_HAL_Driver\Src\stm32f4xx_hal_pcd.c 0x00000000   Number         0  stm32f4xx_hal_pcd.o ABSOLUTE
    ..\Drivers\STM32F4xx_HAL_Driver\Src\stm32f4xx_hal_pcd_ex.c 0x00000000   Number         0  stm32f4xx_hal_pcd_ex.o ABSOLUTE
    ..\Drivers\STM32F4xx_HAL_Driver\Src\stm32f4xx_hal_pwr.c 0x00000000   Number         0  stm32f4xx_hal_pwr.o ABSOLUTE
    ..\Drivers\STM32F4xx_HAL_Driver\Src\stm32f4xx_hal_pwr_ex.c 0x00000000   Number         0  stm32f4xx_hal_pwr_ex.o ABSOLUTE
    ..\Drivers\STM32F4xx_HAL_Driver\Src\stm32f4xx_hal_rcc.c 0x00000000   Number         0  stm32f4xx_hal_rcc.o ABSOLUTE
    ..\Drivers\STM32F4xx_HAL_Driver\Src\stm32f4xx_hal_rcc_ex.c 0x00000000   Number         0  stm32f4xx_hal_rcc_ex.o ABSOLUTE
    ..\Drivers\STM32F4xx_HAL_Driver\Src\stm32f4xx_hal_tim.c 0x00000000   Number         0  stm32f4xx_hal_tim.o ABSOLUTE
    ..\Drivers\STM32F4xx_HAL_Driver\Src\stm32f4xx_hal_tim_ex.c 0x00000000   Number         0  stm32f4xx_hal_tim_ex.o ABSOLUTE
    ..\Drivers\STM32F4xx_HAL_Driver\Src\stm32f4xx_ll_usb.c 0x00000000   Number         0  stm32f4xx_ll_usb.o ABSOLUTE
    ..\Middlewares\ST\STM32_USB_Device_Library\Class\CDC\Src\usbd_cdc.c 0x00000000   Number         0  usbd_cdc.o ABSOLUTE
    ..\Middlewares\ST\STM32_USB_Device_Library\Core\Src\usbd_core.c 0x00000000   Number         0  usbd_core.o ABSOLUTE
    ..\Middlewares\ST\STM32_USB_Device_Library\Core\Src\usbd_ctlreq.c 0x00000000   Number         0  usbd_ctlreq.o ABSOLUTE
    ..\Middlewares\ST\STM32_USB_Device_Library\Core\Src\usbd_ioreq.c 0x00000000   Number         0  usbd_ioreq.o ABSOLUTE
    ..\Src\gpio.c                            0x00000000   Number         0  gpio.o ABSOLUTE
    ..\Src\main.c                            0x00000000   Number         0  main.o ABSOLUTE
    ..\Src\stm32f4xx_hal_msp.c               0x00000000   Number         0  stm32f4xx_hal_msp.o ABSOLUTE
    ..\Src\stm32f4xx_it.c                    0x00000000   Number         0  stm32f4xx_it.o ABSOLUTE
    ..\Src\tim.c                             0x00000000   Number         0  tim.o ABSOLUTE
    ..\Src\usb_device.c                      0x00000000   Number         0  usb_device.o ABSOLUTE
    ..\Src\usbd_cdc_if.c                     0x00000000   Number         0  usbd_cdc_if.o ABSOLUTE
    ..\Src\usbd_conf.c                       0x00000000   Number         0  usbd_conf.o ABSOLUTE
    ..\Src\usbd_desc.c                       0x00000000   Number         0  usbd_desc.o ABSOLUTE
    ..\\Src\system_stm32f4xx.c               0x00000000   Number         0  system_stm32f4xx.o ABSOLUTE
    cdrcmple.s                               0x00000000   Number         0  cdrcmple.o ABSOLUTE
    dc.s                                     0x00000000   Number         0  dc.o ABSOLUTE
    handlers.s                               0x00000000   Number         0  handlers.o ABSOLUTE
    init.s                                   0x00000000   Number         0  init.o ABSOLUTE
    startup_stm32f411xe.s                    0x00000000   Number         0  startup_stm32f411xe.o ABSOLUTE
    RESET                                    0x08000000   Section      408  startup_stm32f411xe.o(RESET)
    .ARM.Collect$$$$00000000                 0x08000198   Section        0  entry.o(.ARM.Collect$$$$00000000)
    .ARM.Collect$$$$00000001                 0x08000198   Section        4  entry2.o(.ARM.Collect$$$$00000001)
    .ARM.Collect$$$$00000004                 0x0800019c   Section        4  entry5.o(.ARM.Collect$$$$00000004)
    .ARM.Collect$$$$00000008                 0x080001a0   Section        0  entry7b.o(.ARM.Collect$$$$00000008)
    .ARM.Collect$$$$0000000A                 0x080001a0   Section        0  entry8b.o(.ARM.Collect$$$$0000000A)
    .ARM.Collect$$$$0000000B                 0x080001a0   Section        8  entry9a.o(.ARM.Collect$$$$0000000B)
    .ARM.Collect$$$$0000000D                 0x080001a8   Section        0  entry10a.o(.ARM.Collect$$$$0000000D)
    .ARM.Collect$$$$0000000F                 0x080001a8   Section        0  entry11a.o(.ARM.Collect$$$$0000000F)
    .ARM.Collect$$$$00002712                 0x080001a8   Section        4  entry2.o(.ARM.Collect$$$$00002712)
    __lit__00000000                          0x080001a8   Data           4  entry2.o(.ARM.Collect$$$$00002712)
    .text                                    0x080001ac   Section       36  startup_stm32f411xe.o(.text)
    $v0                                      0x080001ac   Number         0  startup_stm32f411xe.o(.text)
    .text                                    0x080001d0   Section        0  uldiv.o(.text)
    .text                                    0x08000232   Section        0  memcpya.o(.text)
    .text                                    0x08000258   Section        0  __0sscanf.o(.text)
    .text                                    0x08000290   Section        0  _scanf_int.o(.text)
    .text                                    0x080003dc   Section        0  _scanf_str.o(.text)
    .text                                    0x080004bc   Section        0  uidiv.o(.text)
    .text                                    0x080004e8   Section        0  llshl.o(.text)
    .text                                    0x08000506   Section        0  llushr.o(.text)
    .text                                    0x08000526   Section        0  _chval.o(.text)
    .text                                    0x08000544   Section        0  scanf_char.o(.text)
    _scanf_char_input                        0x08000545   Thumb Code    12  scanf_char.o(.text)
    .text                                    0x0800056c   Section        0  _sgetc.o(.text)
    .text                                    0x080005ac   Section       36  init.o(.text)
    .text                                    0x080005d0   Section        0  isspace_c.o(.text)
    .text                                    0x080005dc   Section        0  _scanf.o(.text)
    .text                                    0x08000908   Section        0  ctype_c.o(.text)
    .text                                    0x08000930   Section        0  __dclz77c.o(.text)
    i.BusFault_Handler                       0x0800098e   Section        0  stm32f4xx_it.o(i.BusFault_Handler)
    i.CDC_Control_FS                         0x08000990   Section        0  usbd_cdc_if.o(i.CDC_Control_FS)
    CDC_Control_FS                           0x08000991   Thumb Code     4  usbd_cdc_if.o(i.CDC_Control_FS)
    i.CDC_DeInit_FS                          0x08000994   Section        0  usbd_cdc_if.o(i.CDC_DeInit_FS)
    CDC_DeInit_FS                            0x08000995   Thumb Code     4  usbd_cdc_if.o(i.CDC_DeInit_FS)
    i.CDC_Init_FS                            0x08000998   Section        0  usbd_cdc_if.o(i.CDC_Init_FS)
    CDC_Init_FS                              0x08000999   Thumb Code    24  usbd_cdc_if.o(i.CDC_Init_FS)
    i.CDC_Receive_FS                         0x080009bc   Section        0  usbd_cdc_if.o(i.CDC_Receive_FS)
    CDC_Receive_FS                           0x080009bd   Thumb Code    42  usbd_cdc_if.o(i.CDC_Receive_FS)
    i.CDC_Transmit_FS                        0x080009ec   Section        0  usbd_cdc_if.o(i.CDC_Transmit_FS)
    i.DebugMon_Handler                       0x08000a18   Section        0  stm32f4xx_it.o(i.DebugMon_Handler)
    i.HAL_Delay                              0x08000a1c   Section        0  stm32f4xx_hal.o(i.HAL_Delay)
    i.HAL_GPIO_Init                          0x08000a40   Section        0  stm32f4xx_hal_gpio.o(i.HAL_GPIO_Init)
    i.HAL_GPIO_WritePin                      0x08000bc8   Section        0  stm32f4xx_hal_gpio.o(i.HAL_GPIO_WritePin)
    i.HAL_GetTick                            0x08000bd4   Section        0  stm32f4xx_hal.o(i.HAL_GetTick)
    i.HAL_IncTick                            0x08000be0   Section        0  stm32f4xx_hal.o(i.HAL_IncTick)
    i.HAL_Init                               0x08000bf0   Section        0  stm32f4xx_hal.o(i.HAL_Init)
    i.HAL_InitTick                           0x08000c24   Section        0  stm32f4xx_hal.o(i.HAL_InitTick)
    i.HAL_MspInit                            0x08000c64   Section        0  stm32f4xx_hal_msp.o(i.HAL_MspInit)
    i.HAL_NVIC_EnableIRQ                     0x08000cbc   Section        0  stm32f4xx_hal_cortex.o(i.HAL_NVIC_EnableIRQ)
    i.HAL_NVIC_SetPriority                   0x08000cd4   Section        0  stm32f4xx_hal_cortex.o(i.HAL_NVIC_SetPriority)
    i.HAL_NVIC_SetPriorityGrouping           0x08000d14   Section        0  stm32f4xx_hal_cortex.o(i.HAL_NVIC_SetPriorityGrouping)
    i.HAL_PCDEx_SetRxFiFo                    0x08000d38   Section        0  stm32f4xx_hal_pcd_ex.o(i.HAL_PCDEx_SetRxFiFo)
    i.HAL_PCDEx_SetTxFiFo                    0x08000d40   Section        0  stm32f4xx_hal_pcd_ex.o(i.HAL_PCDEx_SetTxFiFo)
    i.HAL_PCD_ConnectCallback                0x08000d84   Section        0  usbd_conf.o(i.HAL_PCD_ConnectCallback)
    i.HAL_PCD_DataInStageCallback            0x08000d8c   Section        0  usbd_conf.o(i.HAL_PCD_DataInStageCallback)
    i.HAL_PCD_DataOutStageCallback           0x08000d9e   Section        0  usbd_conf.o(i.HAL_PCD_DataOutStageCallback)
    i.HAL_PCD_DisconnectCallback             0x08000db2   Section        0  usbd_conf.o(i.HAL_PCD_DisconnectCallback)
    i.HAL_PCD_EP_Close                       0x08000dba   Section        0  stm32f4xx_hal_pcd.o(i.HAL_PCD_EP_Close)
    i.HAL_PCD_EP_ClrStall                    0x08000dfe   Section        0  stm32f4xx_hal_pcd.o(i.HAL_PCD_EP_ClrStall)
    i.HAL_PCD_EP_GetRxCount                  0x08000e4e   Section        0  stm32f4xx_hal_pcd.o(i.HAL_PCD_EP_GetRxCount)
    i.HAL_PCD_EP_Open                        0x08000e62   Section        0  stm32f4xx_hal_pcd.o(i.HAL_PCD_EP_Open)
    i.HAL_PCD_EP_Receive                     0x08000eb6   Section        0  stm32f4xx_hal_pcd.o(i.HAL_PCD_EP_Receive)
    i.HAL_PCD_EP_SetStall                    0x08000efe   Section        0  stm32f4xx_hal_pcd.o(i.HAL_PCD_EP_SetStall)
    i.HAL_PCD_EP_Transmit                    0x08000f5e   Section        0  stm32f4xx_hal_pcd.o(i.HAL_PCD_EP_Transmit)
    i.HAL_PCD_IRQHandler                     0x08000fa0   Section        0  stm32f4xx_hal_pcd.o(i.HAL_PCD_IRQHandler)
    i.HAL_PCD_ISOINIncompleteCallback        0x08001494   Section        0  usbd_conf.o(i.HAL_PCD_ISOINIncompleteCallback)
    i.HAL_PCD_ISOOUTIncompleteCallback       0x0800149c   Section        0  usbd_conf.o(i.HAL_PCD_ISOOUTIncompleteCallback)
    i.HAL_PCD_Init                           0x080014a4   Section        0  stm32f4xx_hal_pcd.o(i.HAL_PCD_Init)
    i.HAL_PCD_MspInit                        0x08001564   Section        0  usbd_conf.o(i.HAL_PCD_MspInit)
    i.HAL_PCD_ResetCallback                  0x080015c8   Section        0  usbd_conf.o(i.HAL_PCD_ResetCallback)
    i.HAL_PCD_ResumeCallback                 0x080015e8   Section        0  usbd_conf.o(i.HAL_PCD_ResumeCallback)
    i.HAL_PCD_SOFCallback                    0x080015f0   Section        0  usbd_conf.o(i.HAL_PCD_SOFCallback)
    i.HAL_PCD_SetAddress                     0x080015f8   Section        0  stm32f4xx_hal_pcd.o(i.HAL_PCD_SetAddress)
    i.HAL_PCD_SetupStageCallback             0x0800161c   Section        0  usbd_conf.o(i.HAL_PCD_SetupStageCallback)
    i.HAL_PCD_Start                          0x0800162a   Section        0  stm32f4xx_hal_pcd.o(i.HAL_PCD_Start)
    i.HAL_PCD_SuspendCallback                0x08001654   Section        0  usbd_conf.o(i.HAL_PCD_SuspendCallback)
    i.HAL_RCC_ClockConfig                    0x08001684   Section        0  stm32f4xx_hal_rcc.o(i.HAL_RCC_ClockConfig)
    i.HAL_RCC_GetHCLKFreq                    0x080017b4   Section        0  stm32f4xx_hal_rcc.o(i.HAL_RCC_GetHCLKFreq)
    i.HAL_RCC_GetSysClockFreq                0x080017c0   Section        0  stm32f4xx_hal_rcc.o(i.HAL_RCC_GetSysClockFreq)
    i.HAL_RCC_OscConfig                      0x08001820   Section        0  stm32f4xx_hal_rcc.o(i.HAL_RCC_OscConfig)
    i.HAL_SYSTICK_CLKSourceConfig            0x08001b3c   Section        0  stm32f4xx_hal_cortex.o(i.HAL_SYSTICK_CLKSourceConfig)
    i.HAL_SYSTICK_Callback                   0x08001b54   Section        0  stm32f4xx_hal_cortex.o(i.HAL_SYSTICK_Callback)
    i.HAL_SYSTICK_Config                     0x08001b56   Section        0  stm32f4xx_hal_cortex.o(i.HAL_SYSTICK_Config)
    i.HAL_SYSTICK_IRQHandler                 0x08001b7e   Section        0  stm32f4xx_hal_cortex.o(i.HAL_SYSTICK_IRQHandler)
    i.HAL_TIMEx_BreakCallback                0x08001b86   Section        0  stm32f4xx_hal_tim_ex.o(i.HAL_TIMEx_BreakCallback)
    i.HAL_TIMEx_CommutationCallback          0x08001b88   Section        0  stm32f4xx_hal_tim_ex.o(i.HAL_TIMEx_CommutationCallback)
    i.HAL_TIMEx_MasterConfigSynchronization  0x08001b8a   Section        0  stm32f4xx_hal_tim_ex.o(i.HAL_TIMEx_MasterConfigSynchronization)
    i.HAL_TIM_Base_Init                      0x08001bda   Section        0  stm32f4xx_hal_tim.o(i.HAL_TIM_Base_Init)
    i.HAL_TIM_Base_MspInit                   0x08001c10   Section        0  tim.o(i.HAL_TIM_Base_MspInit)
    i.HAL_TIM_ConfigClockSource              0x08001c4c   Section        0  stm32f4xx_hal_tim.o(i.HAL_TIM_ConfigClockSource)
    i.HAL_TIM_IC_CaptureCallback             0x08001d3e   Section        0  stm32f4xx_hal_tim.o(i.HAL_TIM_IC_CaptureCallback)
    i.HAL_TIM_IRQHandler                     0x08001d40   Section        0  stm32f4xx_hal_tim.o(i.HAL_TIM_IRQHandler)
    i.HAL_TIM_OC_DelayElapsedCallback        0x08001ea6   Section        0  stm32f4xx_hal_tim.o(i.HAL_TIM_OC_DelayElapsedCallback)
    i.HAL_TIM_PWM_PulseFinishedCallback      0x08001ea8   Section        0  stm32f4xx_hal_tim.o(i.HAL_TIM_PWM_PulseFinishedCallback)
    i.HAL_TIM_PeriodElapsedCallback          0x08001eac   Section        0  main.o(i.HAL_TIM_PeriodElapsedCallback)
    i.HAL_TIM_TriggerCallback                0x08001ef4   Section        0  stm32f4xx_hal_tim.o(i.HAL_TIM_TriggerCallback)
    i.HardFault_Handler                      0x08001ef6   Section        0  stm32f4xx_it.o(i.HardFault_Handler)
    i.MX_GPIO_Init                           0x08001ef8   Section        0  gpio.o(i.MX_GPIO_Init)
    i.MX_TIM1_Init                           0x08002048   Section        0  tim.o(i.MX_TIM1_Init)
    i.MX_USB_DEVICE_Init                     0x080020bc   Section        0  usb_device.o(i.MX_USB_DEVICE_Init)
    i.MemManage_Handler                      0x080020f4   Section        0  stm32f4xx_it.o(i.MemManage_Handler)
    i.NMI_Handler                            0x080020f6   Section        0  stm32f4xx_it.o(i.NMI_Handler)
    i.NVIC_SetPriority                       0x080020f8   Section        0  stm32f4xx_hal_cortex.o(i.NVIC_SetPriority)
    NVIC_SetPriority                         0x080020f9   Thumb Code    32  stm32f4xx_hal_cortex.o(i.NVIC_SetPriority)
    i.OTG_FS_IRQHandler                      0x08002118   Section        0  stm32f4xx_it.o(i.OTG_FS_IRQHandler)
    i.PCD_WriteEmptyTxFifo                   0x08002124   Section        0  stm32f4xx_hal_pcd.o(i.PCD_WriteEmptyTxFifo)
    PCD_WriteEmptyTxFifo                     0x08002125   Thumb Code   136  stm32f4xx_hal_pcd.o(i.PCD_WriteEmptyTxFifo)
    i.PendSV_Handler                         0x080021ac   Section        0  stm32f4xx_it.o(i.PendSV_Handler)
    i.SVC_Handler                            0x080021ae   Section        0  stm32f4xx_it.o(i.SVC_Handler)
    i.SysTick_Handler                        0x080021b0   Section        0  stm32f4xx_it.o(i.SysTick_Handler)
    i.SystemClock_Config                     0x080021c0   Section        0  main.o(i.SystemClock_Config)
    i.SystemInit                             0x0800225c   Section        0  system_stm32f4xx.o(i.SystemInit)
    i.TIM1_UP_TIM10_IRQHandler               0x080022b0   Section        0  stm32f4xx_it.o(i.TIM1_UP_TIM10_IRQHandler)
    i.TIM_Base_SetConfig                     0x080022bc   Section        0  stm32f4xx_hal_tim.o(i.TIM_Base_SetConfig)
    i.TIM_ETR_SetConfig                      0x0800234c   Section        0  stm32f4xx_hal_tim.o(i.TIM_ETR_SetConfig)
    TIM_ETR_SetConfig                        0x0800234d   Thumb Code    20  stm32f4xx_hal_tim.o(i.TIM_ETR_SetConfig)
    i.TIM_ITRx_SetConfig                     0x08002360   Section        0  stm32f4xx_hal_tim.o(i.TIM_ITRx_SetConfig)
    TIM_ITRx_SetConfig                       0x08002361   Thumb Code    16  stm32f4xx_hal_tim.o(i.TIM_ITRx_SetConfig)
    i.TIM_TI1_ConfigInputStage               0x08002370   Section        0  stm32f4xx_hal_tim.o(i.TIM_TI1_ConfigInputStage)
    TIM_TI1_ConfigInputStage                 0x08002371   Thumb Code    34  stm32f4xx_hal_tim.o(i.TIM_TI1_ConfigInputStage)
    i.TIM_TI2_ConfigInputStage               0x08002392   Section        0  stm32f4xx_hal_tim.o(i.TIM_TI2_ConfigInputStage)
    TIM_TI2_ConfigInputStage                 0x08002393   Thumb Code    36  stm32f4xx_hal_tim.o(i.TIM_TI2_ConfigInputStage)
    i.USBD_CDC_DataIn                        0x080023b6   Section        0  usbd_cdc.o(i.USBD_CDC_DataIn)
    USBD_CDC_DataIn                          0x080023b7   Thumb Code    20  usbd_cdc.o(i.USBD_CDC_DataIn)
    i.USBD_CDC_DataOut                       0x080023ca   Section        0  usbd_cdc.o(i.USBD_CDC_DataOut)
    USBD_CDC_DataOut                         0x080023cb   Thumb Code    46  usbd_cdc.o(i.USBD_CDC_DataOut)
    i.USBD_CDC_DeInit                        0x080023f8   Section        0  usbd_cdc.o(i.USBD_CDC_DeInit)
    USBD_CDC_DeInit                          0x080023f9   Thumb Code    60  usbd_cdc.o(i.USBD_CDC_DeInit)
    i.USBD_CDC_EP0_RxReady                   0x08002434   Section        0  usbd_cdc.o(i.USBD_CDC_EP0_RxReady)
    USBD_CDC_EP0_RxReady                     0x08002435   Thumb Code    36  usbd_cdc.o(i.USBD_CDC_EP0_RxReady)
    i.USBD_CDC_GetDeviceQualifierDescriptor  0x08002458   Section        0  usbd_cdc.o(i.USBD_CDC_GetDeviceQualifierDescriptor)
    i.USBD_CDC_GetFSCfgDesc                  0x08002464   Section        0  usbd_cdc.o(i.USBD_CDC_GetFSCfgDesc)
    USBD_CDC_GetFSCfgDesc                    0x08002465   Thumb Code     8  usbd_cdc.o(i.USBD_CDC_GetFSCfgDesc)
    i.USBD_CDC_GetHSCfgDesc                  0x08002470   Section        0  usbd_cdc.o(i.USBD_CDC_GetHSCfgDesc)
    USBD_CDC_GetHSCfgDesc                    0x08002471   Thumb Code     8  usbd_cdc.o(i.USBD_CDC_GetHSCfgDesc)
    i.USBD_CDC_GetOtherSpeedCfgDesc          0x0800247c   Section        0  usbd_cdc.o(i.USBD_CDC_GetOtherSpeedCfgDesc)
    USBD_CDC_GetOtherSpeedCfgDesc            0x0800247d   Thumb Code     8  usbd_cdc.o(i.USBD_CDC_GetOtherSpeedCfgDesc)
    i.USBD_CDC_Init                          0x08002488   Section        0  usbd_cdc.o(i.USBD_CDC_Init)
    USBD_CDC_Init                            0x08002489   Thumb Code   136  usbd_cdc.o(i.USBD_CDC_Init)
    i.USBD_CDC_ReceivePacket                 0x08002510   Section        0  usbd_cdc.o(i.USBD_CDC_ReceivePacket)
    i.USBD_CDC_RegisterInterface             0x08002538   Section        0  usbd_cdc.o(i.USBD_CDC_RegisterInterface)
    i.USBD_CDC_SetRxBuffer                   0x08002548   Section        0  usbd_cdc.o(i.USBD_CDC_SetRxBuffer)
    i.USBD_CDC_SetTxBuffer                   0x08002554   Section        0  usbd_cdc.o(i.USBD_CDC_SetTxBuffer)
    i.USBD_CDC_Setup                         0x08002564   Section        0  usbd_cdc.o(i.USBD_CDC_Setup)
    USBD_CDC_Setup                           0x08002565   Thumb Code   106  usbd_cdc.o(i.USBD_CDC_Setup)
    i.USBD_CDC_TransmitPacket                0x080025d4   Section        0  usbd_cdc.o(i.USBD_CDC_TransmitPacket)
    i.USBD_ClrClassConfig                    0x08002604   Section        0  usbd_core.o(i.USBD_ClrClassConfig)
    i.USBD_CtlContinueRx                     0x08002612   Section        0  usbd_ioreq.o(i.USBD_CtlContinueRx)
    i.USBD_CtlContinueSendData               0x08002622   Section        0  usbd_ioreq.o(i.USBD_CtlContinueSendData)
    i.USBD_CtlError                          0x08002632   Section        0  usbd_ctlreq.o(i.USBD_CtlError)
    i.USBD_CtlPrepareRx                      0x08002648   Section        0  usbd_ioreq.o(i.USBD_CtlPrepareRx)
    i.USBD_CtlReceiveStatus                  0x08002666   Section        0  usbd_ioreq.o(i.USBD_CtlReceiveStatus)
    i.USBD_CtlSendData                       0x0800267c   Section        0  usbd_ioreq.o(i.USBD_CtlSendData)
    i.USBD_CtlSendStatus                     0x08002696   Section        0  usbd_ioreq.o(i.USBD_CtlSendStatus)
    i.USBD_FS_ConfigStrDescriptor            0x080026ac   Section        0  usbd_desc.o(i.USBD_FS_ConfigStrDescriptor)
    i.USBD_FS_DeviceDescriptor               0x080026cc   Section        0  usbd_desc.o(i.USBD_FS_DeviceDescriptor)
    i.USBD_FS_InterfaceStrDescriptor         0x080026d8   Section        0  usbd_desc.o(i.USBD_FS_InterfaceStrDescriptor)
    i.USBD_FS_LangIDStrDescriptor            0x080026fc   Section        0  usbd_desc.o(i.USBD_FS_LangIDStrDescriptor)
    i.USBD_FS_ManufacturerStrDescriptor      0x08002708   Section        0  usbd_desc.o(i.USBD_FS_ManufacturerStrDescriptor)
    i.USBD_FS_ProductStrDescriptor           0x08002730   Section        0  usbd_desc.o(i.USBD_FS_ProductStrDescriptor)
    i.USBD_FS_SerialStrDescriptor            0x0800275c   Section        0  usbd_desc.o(i.USBD_FS_SerialStrDescriptor)
    i.USBD_GetDescriptor                     0x08002780   Section        0  usbd_ctlreq.o(i.USBD_GetDescriptor)
    USBD_GetDescriptor                       0x08002781   Thumb Code   224  usbd_ctlreq.o(i.USBD_GetDescriptor)
    i.USBD_GetString                         0x08002860   Section        0  usbd_ctlreq.o(i.USBD_GetString)
    i.USBD_Init                              0x080028a6   Section        0  usbd_core.o(i.USBD_Init)
    i.USBD_LL_ClearStallEP                   0x080028d0   Section        0  usbd_conf.o(i.USBD_LL_ClearStallEP)
    i.USBD_LL_CloseEP                        0x080028f0   Section        0  usbd_conf.o(i.USBD_LL_CloseEP)
    i.USBD_LL_DataInStage                    0x08002910   Section        0  usbd_core.o(i.USBD_LL_DataInStage)
    i.USBD_LL_DataOutStage                   0x080029ba   Section        0  usbd_core.o(i.USBD_LL_DataOutStage)
    i.USBD_LL_DevConnected                   0x08002a24   Section        0  usbd_core.o(i.USBD_LL_DevConnected)
    i.USBD_LL_DevDisconnected                0x08002a28   Section        0  usbd_core.o(i.USBD_LL_DevDisconnected)
    i.USBD_LL_GetRxDataSize                  0x08002a3e   Section        0  usbd_conf.o(i.USBD_LL_GetRxDataSize)
    i.USBD_LL_Init                           0x08002a48   Section        0  usbd_conf.o(i.USBD_LL_Init)
    i.USBD_LL_IsStallEP                      0x08002ac4   Section        0  usbd_conf.o(i.USBD_LL_IsStallEP)
    i.USBD_LL_IsoINIncomplete                0x08002ae4   Section        0  usbd_core.o(i.USBD_LL_IsoINIncomplete)
    i.USBD_LL_IsoOUTIncomplete               0x08002ae8   Section        0  usbd_core.o(i.USBD_LL_IsoOUTIncomplete)
    i.USBD_LL_OpenEP                         0x08002aec   Section        0  usbd_conf.o(i.USBD_LL_OpenEP)
    i.USBD_LL_PrepareReceive                 0x08002b12   Section        0  usbd_conf.o(i.USBD_LL_PrepareReceive)
    i.USBD_LL_Reset                          0x08002b32   Section        0  usbd_core.o(i.USBD_LL_Reset)
    i.USBD_LL_Resume                         0x08002b70   Section        0  usbd_core.o(i.USBD_LL_Resume)
    i.USBD_LL_SOF                            0x08002b7c   Section        0  usbd_core.o(i.USBD_LL_SOF)
    i.USBD_LL_SetSpeed                       0x08002b94   Section        0  usbd_core.o(i.USBD_LL_SetSpeed)
    i.USBD_LL_SetUSBAddress                  0x08002b9a   Section        0  usbd_conf.o(i.USBD_LL_SetUSBAddress)
    i.USBD_LL_SetupStage                     0x08002bba   Section        0  usbd_core.o(i.USBD_LL_SetupStage)
    i.USBD_LL_StallEP                        0x08002c14   Section        0  usbd_conf.o(i.USBD_LL_StallEP)
    i.USBD_LL_Start                          0x08002c34   Section        0  usbd_conf.o(i.USBD_LL_Start)
    i.USBD_LL_Suspend                        0x08002c54   Section        0  usbd_core.o(i.USBD_LL_Suspend)
    i.USBD_LL_Transmit                       0x08002c66   Section        0  usbd_conf.o(i.USBD_LL_Transmit)
    i.USBD_ParseSetupRequest                 0x08002c86   Section        0  usbd_ctlreq.o(i.USBD_ParseSetupRequest)
    i.USBD_RegisterClass                     0x08002cae   Section        0  usbd_core.o(i.USBD_RegisterClass)
    i.USBD_SetClassConfig                    0x08002cbe   Section        0  usbd_core.o(i.USBD_SetClassConfig)
    i.USBD_SetConfig                         0x08002cd4   Section        0  usbd_ctlreq.o(i.USBD_SetConfig)
    USBD_SetConfig                           0x08002cd5   Thumb Code   110  usbd_ctlreq.o(i.USBD_SetConfig)
    i.USBD_Start                             0x08002d48   Section        0  usbd_core.o(i.USBD_Start)
    i.USBD_StdDevReq                         0x08002d52   Section        0  usbd_ctlreq.o(i.USBD_StdDevReq)
    i.USBD_StdEPReq                          0x08002e44   Section        0  usbd_ctlreq.o(i.USBD_StdEPReq)
    i.USBD_StdItfReq                         0x08002f20   Section        0  usbd_ctlreq.o(i.USBD_StdItfReq)
    i.USB_ActivateEndpoint                   0x08002f54   Section        0  stm32f4xx_ll_usb.o(i.USB_ActivateEndpoint)
    i.USB_ActivateSetup                      0x08002fd4   Section        0  stm32f4xx_ll_usb.o(i.USB_ActivateSetup)
    i.USB_CoreInit                           0x08003008   Section        0  stm32f4xx_ll_usb.o(i.USB_CoreInit)
    i.USB_CoreReset                          0x08003074   Section        0  stm32f4xx_ll_usb.o(i.USB_CoreReset)
    USB_CoreReset                            0x08003075   Thumb Code    50  stm32f4xx_ll_usb.o(i.USB_CoreReset)
    i.USB_DeactivateEndpoint                 0x080030ac   Section        0  stm32f4xx_ll_usb.o(i.USB_DeactivateEndpoint)
    i.USB_DevConnect                         0x08003174   Section        0  stm32f4xx_ll_usb.o(i.USB_DevConnect)
    i.USB_DevDisconnect                      0x0800318c   Section        0  stm32f4xx_ll_usb.o(i.USB_DevDisconnect)
    i.USB_DevInit                            0x080031a4   Section        0  stm32f4xx_ll_usb.o(i.USB_DevInit)
    i.USB_DisableGlobalInt                   0x080032e4   Section        0  stm32f4xx_ll_usb.o(i.USB_DisableGlobalInt)
    i.USB_EP0StartXfer                       0x080032f0   Section        0  stm32f4xx_ll_usb.o(i.USB_EP0StartXfer)
    i.USB_EP0_OutStart                       0x08003430   Section        0  stm32f4xx_ll_usb.o(i.USB_EP0_OutStart)
    i.USB_EPClearStall                       0x0800346e   Section        0  stm32f4xx_ll_usb.o(i.USB_EPClearStall)
    i.USB_EPSetStall                         0x080034d2   Section        0  stm32f4xx_ll_usb.o(i.USB_EPSetStall)
    i.USB_EPStartXfer                        0x08003530   Section        0  stm32f4xx_ll_usb.o(i.USB_EPStartXfer)
    i.USB_EnableGlobalInt                    0x0800374c   Section        0  stm32f4xx_ll_usb.o(i.USB_EnableGlobalInt)
    i.USB_FlushRxFifo                        0x08003758   Section        0  stm32f4xx_ll_usb.o(i.USB_FlushRxFifo)
    i.USB_FlushTxFifo                        0x08003778   Section        0  stm32f4xx_ll_usb.o(i.USB_FlushTxFifo)
    i.USB_GetDevSpeed                        0x0800379c   Section        0  stm32f4xx_ll_usb.o(i.USB_GetDevSpeed)
    i.USB_GetMode                            0x080037d8   Section        0  stm32f4xx_ll_usb.o(i.USB_GetMode)
    i.USB_ReadDevAllInEpInterrupt            0x080037e0   Section        0  stm32f4xx_ll_usb.o(i.USB_ReadDevAllInEpInterrupt)
    i.USB_ReadDevAllOutEpInterrupt           0x080037ee   Section        0  stm32f4xx_ll_usb.o(i.USB_ReadDevAllOutEpInterrupt)
    i.USB_ReadDevInEPInterrupt               0x080037fc   Section        0  stm32f4xx_ll_usb.o(i.USB_ReadDevInEPInterrupt)
    i.USB_ReadDevOutEPInterrupt              0x0800381a   Section        0  stm32f4xx_ll_usb.o(i.USB_ReadDevOutEPInterrupt)
    i.USB_ReadInterrupts                     0x0800382a   Section        0  stm32f4xx_ll_usb.o(i.USB_ReadInterrupts)
    i.USB_ReadPacket                         0x08003832   Section        0  stm32f4xx_ll_usb.o(i.USB_ReadPacket)
    i.USB_SetCurrentMode                     0x08003852   Section        0  stm32f4xx_ll_usb.o(i.USB_SetCurrentMode)
    i.USB_SetDevAddress                      0x0800387e   Section        0  stm32f4xx_ll_usb.o(i.USB_SetDevAddress)
    i.USB_WritePacket                        0x080038a0   Section        0  stm32f4xx_ll_usb.o(i.USB_WritePacket)
    i.UsageFault_Handler                     0x080038c8   Section        0  stm32f4xx_it.o(i.UsageFault_Handler)
    i._Error_Handler                         0x080038ca   Section        0  main.o(i._Error_Handler)
    i.__0sprintf$6                           0x080038cc   Section        0  printf6.o(i.__0sprintf$6)
    i.__scatterload_copy                     0x080038f4   Section       14  handlers.o(i.__scatterload_copy)
    i.__scatterload_null                     0x08003902   Section        2  handlers.o(i.__scatterload_null)
    i.__scatterload_zeroinit                 0x08003904   Section       14  handlers.o(i.__scatterload_zeroinit)
    i._printf_core                           0x08003914   Section        0  printf6.o(i._printf_core)
    _printf_core                             0x08003915   Thumb Code   748  printf6.o(i._printf_core)
    i._printf_post_padding                   0x08003c04   Section        0  printf6.o(i._printf_post_padding)
    _printf_post_padding                     0x08003c05   Thumb Code    36  printf6.o(i._printf_post_padding)
    i._printf_pre_padding                    0x08003c28   Section        0  printf6.o(i._printf_pre_padding)
    _printf_pre_padding                      0x08003c29   Thumb Code    46  printf6.o(i._printf_pre_padding)
    i._sputc                                 0x08003c56   Section        0  printf6.o(i._sputc)
    _sputc                                   0x08003c57   Thumb Code    10  printf6.o(i._sputc)
    i.char_to_port                           0x08003c60   Section        0  main.o(i.char_to_port)
    i.free                                   0x08003ca0   Section        0  malloc.o(i.free)
    i.main                                   0x08003cf0   Section        0  main.o(i.main)
    i.malloc                                 0x08003d08   Section        0  malloc.o(i.malloc)
    i.parser                                 0x08003d74   Section        0  main.o(i.parser)
    i.port_to_char                           0x08003e34   Section        0  main.o(i.port_to_char)
    i.print_error                            0x08003e80   Section        0  main.o(i.print_error)
    i.print_ok                               0x08003ea0   Section        0  main.o(i.print_ok)
    .constdata                               0x08003ed4   Section       16  system_stm32f4xx.o(.constdata)
    .constdata                               0x08003ee4   Section       64  ctype_c.o(.constdata)
    .data                                    0x20000000   Section      219  usbd_cdc.o(.data)
    ifalt                                    0x20000000   Data           1  usbd_cdc.o(.data)
    USBD_CDC_DeviceQualifierDesc             0x20000004   Data          10  usbd_cdc.o(.data)
    .data                                    0x200000dc   Section       56  usbd_cdc.o(.data)
    .data                                    0x20000114   Section        1  usbd_ctlreq.o(.data)
    cfgidx                                   0x20000114   Data           1  usbd_ctlreq.o(.data)
    .data                                    0x20000118   Section       28  usbd_desc.o(.data)
    .data                                    0x20000134   Section       22  usbd_desc.o(.data)
    .data                                    0x2000014c   Section      608  main.o(.data)
    buf_ind                                  0x2000014c   Data           1  main.o(.data)
    len                                      0x2000014e   Data           2  main.o(.data)
    timer_counter                            0x20000150   Data           4  main.o(.data)
    gpios                                    0x20000154   Data         600  main.o(.data)
    .data                                    0x200003ac   Section       16  usbd_cdc_if.o(.data)
    .data                                    0x200003bc   Section       12  stm32f4xx_hal.o(.data)
    .data                                    0x200003c8   Section        4  system_stm32f4xx.o(.data)
    .data                                    0x200003cc   Section        4  mvars.o(.data)
    .data                                    0x200003d0   Section        4  mvars.o(.data)
    .bss                                     0x200003d4   Section      548  usb_device.o(.bss)
    .bss                                     0x200005f8   Section       60  tim.o(.bss)
    .bss                                     0x20000634   Section      512  usbd_desc.o(.bss)
    .bss                                     0x20000834   Section     1008  usbd_conf.o(.bss)
    .bss                                     0x20000c24   Section      347  main.o(.bss)
    buf                                      0x20000c6f   Data          16  main.o(.bss)
    buf                                      0x20000c7f   Data         256  main.o(.bss)
    .bss                                     0x20000d7f   Section     4096  usbd_cdc_if.o(.bss)
    HEAP                                     0x20001d80   Section     1024  startup_stm32f411xe.o(HEAP)
    STACK                                    0x20002180   Section     1024  startup_stm32f411xe.o(STACK)

    Global Symbols

    Symbol Name                              Value     Ov Type        Size  Object(Section)

    BuildAttributes$$THM_ISAv4$E$P$D$K$B$S$7EM$VFPi3$EXTD16$VFPS$VFMA$PE$A:L22UL41UL21$X:L11$S22US41US21$IEEE1$IW$USESV6$~STKCKD$USESV7$~SHL$OSPACE$ROPI$EBA8$MICROLIB$REQ8$PRES8$EABIv2 0x00000000   Number         0  anon$$obj.o ABSOLUTE
    __ARM_use_no_argv                        0x00000000   Number         0  main.o ABSOLUTE
    _printf_a                                0x00000000   Number         0  stubs.o ABSOLUTE
    _printf_c                                0x00000000   Number         0  stubs.o ABSOLUTE
    _printf_charcount                        0x00000000   Number         0  stubs.o ABSOLUTE
    _printf_d                                0x00000000   Number         0  stubs.o ABSOLUTE
    _printf_e                                0x00000000   Number         0  stubs.o ABSOLUTE
    _printf_f                                0x00000000   Number         0  stubs.o ABSOLUTE
    _printf_flags                            0x00000000   Number         0  stubs.o ABSOLUTE
    _printf_fp_dec                           0x00000000   Number         0  stubs.o ABSOLUTE
    _printf_fp_hex                           0x00000000   Number         0  stubs.o ABSOLUTE
    _printf_g                                0x00000000   Number         0  stubs.o ABSOLUTE
    _printf_i                                0x00000000   Number         0  stubs.o ABSOLUTE
    _printf_int_dec                          0x00000000   Number         0  stubs.o ABSOLUTE
    _printf_l                                0x00000000   Number         0  stubs.o ABSOLUTE
    _printf_lc                               0x00000000   Number         0  stubs.o ABSOLUTE
    _printf_ll                               0x00000000   Number         0  stubs.o ABSOLUTE
    _printf_lld                              0x00000000   Number         0  stubs.o ABSOLUTE
    _printf_lli                              0x00000000   Number         0  stubs.o ABSOLUTE
    _printf_llo                              0x00000000   Number         0  stubs.o ABSOLUTE
    _printf_llu                              0x00000000   Number         0  stubs.o ABSOLUTE
    _printf_llx                              0x00000000   Number         0  stubs.o ABSOLUTE
    _printf_longlong_dec                     0x00000000   Number         0  stubs.o ABSOLUTE
    _printf_longlong_hex                     0x00000000   Number         0  stubs.o ABSOLUTE
    _printf_longlong_oct                     0x00000000   Number         0  stubs.o ABSOLUTE
    _printf_ls                               0x00000000   Number         0  stubs.o ABSOLUTE
    _printf_mbtowc                           0x00000000   Number         0  stubs.o ABSOLUTE
    _printf_n                                0x00000000   Number         0  stubs.o ABSOLUTE
    _printf_o                                0x00000000   Number         0  stubs.o ABSOLUTE
    _printf_p                                0x00000000   Number         0  stubs.o ABSOLUTE
    _printf_percent                          0x00000000   Number         0  stubs.o ABSOLUTE
    _printf_pre_padding                      0x00000000   Number         0  stubs.o ABSOLUTE
    _printf_return_value                     0x00000000   Number         0  stubs.o ABSOLUTE
    _printf_s                                0x00000000   Number         0  stubs.o ABSOLUTE
    _printf_sizespec                         0x00000000   Number         0  stubs.o ABSOLUTE
    _printf_str                              0x00000000   Number         0  stubs.o ABSOLUTE
    _printf_truncate_signed                  0x00000000   Number         0  stubs.o ABSOLUTE
    _printf_truncate_unsigned                0x00000000   Number         0  stubs.o ABSOLUTE
    _printf_u                                0x00000000   Number         0  stubs.o ABSOLUTE
    _printf_wc                               0x00000000   Number         0  stubs.o ABSOLUTE
    _printf_wctomb                           0x00000000   Number         0  stubs.o ABSOLUTE
    _printf_widthprec                        0x00000000   Number         0  stubs.o ABSOLUTE
    _printf_x                                0x00000000   Number         0  stubs.o ABSOLUTE
    __cpp_initialize__aeabi_                  - Undefined Weak Reference
    __cxa_finalize                            - Undefined Weak Reference
    _clock_init                               - Undefined Weak Reference
    _microlib_exit                            - Undefined Weak Reference
    _scanf_longlong                           - Undefined Weak Reference
    _scanf_real                               - Undefined Weak Reference
    __Vectors_Size                           0x00000198   Number         0  startup_stm32f411xe.o ABSOLUTE
    __Vectors                                0x08000000   Data           4  startup_stm32f411xe.o(RESET)
    __Vectors_End                            0x08000198   Data           0  startup_stm32f411xe.o(RESET)
    __main                                   0x08000199   Thumb Code     0  entry.o(.ARM.Collect$$$$00000000)
    _main_stk                                0x08000199   Thumb Code     0  entry2.o(.ARM.Collect$$$$00000001)
    _main_scatterload                        0x0800019d   Thumb Code     0  entry5.o(.ARM.Collect$$$$00000004)
    __main_after_scatterload                 0x080001a1   Thumb Code     0  entry5.o(.ARM.Collect$$$$00000004)
    _main_clock                              0x080001a1   Thumb Code     0  entry7b.o(.ARM.Collect$$$$00000008)
    _main_cpp_init                           0x080001a1   Thumb Code     0  entry8b.o(.ARM.Collect$$$$0000000A)
    _main_init                               0x080001a1   Thumb Code     0  entry9a.o(.ARM.Collect$$$$0000000B)
    __rt_final_cpp                           0x080001a9   Thumb Code     0  entry10a.o(.ARM.Collect$$$$0000000D)
    __rt_final_exit                          0x080001a9   Thumb Code     0  entry11a.o(.ARM.Collect$$$$0000000F)
    Reset_Handler                            0x080001ad   Thumb Code     8  startup_stm32f411xe.o(.text)
    ADC_IRQHandler                           0x080001c7   Thumb Code     0  startup_stm32f411xe.o(.text)
    DMA1_Stream0_IRQHandler                  0x080001c7   Thumb Code     0  startup_stm32f411xe.o(.text)
    DMA1_Stream1_IRQHandler                  0x080001c7   Thumb Code     0  startup_stm32f411xe.o(.text)
    DMA1_Stream2_IRQHandler                  0x080001c7   Thumb Code     0  startup_stm32f411xe.o(.text)
    DMA1_Stream3_IRQHandler                  0x080001c7   Thumb Code     0  startup_stm32f411xe.o(.text)
    DMA1_Stream4_IRQHandler                  0x080001c7   Thumb Code     0  startup_stm32f411xe.o(.text)
    DMA1_Stream5_IRQHandler                  0x080001c7   Thumb Code     0  startup_stm32f411xe.o(.text)
    DMA1_Stream6_IRQHandler                  0x080001c7   Thumb Code     0  startup_stm32f411xe.o(.text)
    DMA1_Stream7_IRQHandler                  0x080001c7   Thumb Code     0  startup_stm32f411xe.o(.text)
    DMA2_Stream0_IRQHandler                  0x080001c7   Thumb Code     0  startup_stm32f411xe.o(.text)
    DMA2_Stream1_IRQHandler                  0x080001c7   Thumb Code     0  startup_stm32f411xe.o(.text)
    DMA2_Stream2_IRQHandler                  0x080001c7   Thumb Code     0  startup_stm32f411xe.o(.text)
    DMA2_Stream3_IRQHandler                  0x080001c7   Thumb Code     0  startup_stm32f411xe.o(.text)
    DMA2_Stream4_IRQHandler                  0x080001c7   Thumb Code     0  startup_stm32f411xe.o(.text)
    DMA2_Stream5_IRQHandler                  0x080001c7   Thumb Code     0  startup_stm32f411xe.o(.text)
    DMA2_Stream6_IRQHandler                  0x080001c7   Thumb Code     0  startup_stm32f411xe.o(.text)
    DMA2_Stream7_IRQHandler                  0x080001c7   Thumb Code     0  startup_stm32f411xe.o(.text)
    EXTI0_IRQHandler                         0x080001c7   Thumb Code     0  startup_stm32f411xe.o(.text)
    EXTI15_10_IRQHandler                     0x080001c7   Thumb Code     0  startup_stm32f411xe.o(.text)
    EXTI1_IRQHandler                         0x080001c7   Thumb Code     0  startup_stm32f411xe.o(.text)
    EXTI2_IRQHandler                         0x080001c7   Thumb Code     0  startup_stm32f411xe.o(.text)
    EXTI3_IRQHandler                         0x080001c7   Thumb Code     0  startup_stm32f411xe.o(.text)
    EXTI4_IRQHandler                         0x080001c7   Thumb Code     0  startup_stm32f411xe.o(.text)
    EXTI9_5_IRQHandler                       0x080001c7   Thumb Code     0  startup_stm32f411xe.o(.text)
    FLASH_IRQHandler                         0x080001c7   Thumb Code     0  startup_stm32f411xe.o(.text)
    FPU_IRQHandler                           0x080001c7   Thumb Code     0  startup_stm32f411xe.o(.text)
    I2C1_ER_IRQHandler                       0x080001c7   Thumb Code     0  startup_stm32f411xe.o(.text)
    I2C1_EV_IRQHandler                       0x080001c7   Thumb Code     0  startup_stm32f411xe.o(.text)
    I2C2_ER_IRQHandler                       0x080001c7   Thumb Code     0  startup_stm32f411xe.o(.text)
    I2C2_EV_IRQHandler                       0x080001c7   Thumb Code     0  startup_stm32f411xe.o(.text)
    I2C3_ER_IRQHandler                       0x080001c7   Thumb Code     0  startup_stm32f411xe.o(.text)
    I2C3_EV_IRQHandler                       0x080001c7   Thumb Code     0  startup_stm32f411xe.o(.text)
    OTG_FS_WKUP_IRQHandler                   0x080001c7   Thumb Code     0  startup_stm32f411xe.o(.text)
    PVD_IRQHandler                           0x080001c7   Thumb Code     0  startup_stm32f411xe.o(.text)
    RCC_IRQHandler                           0x080001c7   Thumb Code     0  startup_stm32f411xe.o(.text)
    RTC_Alarm_IRQHandler                     0x080001c7   Thumb Code     0  startup_stm32f411xe.o(.text)
    RTC_WKUP_IRQHandler                      0x080001c7   Thumb Code     0  startup_stm32f411xe.o(.text)
    SDIO_IRQHandler                          0x080001c7   Thumb Code     0  startup_stm32f411xe.o(.text)
    SPI1_IRQHandler                          0x080001c7   Thumb Code     0  startup_stm32f411xe.o(.text)
    SPI2_IRQHandler                          0x080001c7   Thumb Code     0  startup_stm32f411xe.o(.text)
    SPI3_IRQHandler                          0x080001c7   Thumb Code     0  startup_stm32f411xe.o(.text)
    SPI4_IRQHandler                          0x080001c7   Thumb Code     0  startup_stm32f411xe.o(.text)
    SPI5_IRQHandler                          0x080001c7   Thumb Code     0  startup_stm32f411xe.o(.text)
    TAMP_STAMP_IRQHandler                    0x080001c7   Thumb Code     0  startup_stm32f411xe.o(.text)
    TIM1_BRK_TIM9_IRQHandler                 0x080001c7   Thumb Code     0  startup_stm32f411xe.o(.text)
    TIM1_CC_IRQHandler                       0x080001c7   Thumb Code     0  startup_stm32f411xe.o(.text)
    TIM1_TRG_COM_TIM11_IRQHandler            0x080001c7   Thumb Code     0  startup_stm32f411xe.o(.text)
    TIM2_IRQHandler                          0x080001c7   Thumb Code     0  startup_stm32f411xe.o(.text)
    TIM3_IRQHandler                          0x080001c7   Thumb Code     0  startup_stm32f411xe.o(.text)
    TIM4_IRQHandler                          0x080001c7   Thumb Code     0  startup_stm32f411xe.o(.text)
    TIM5_IRQHandler                          0x080001c7   Thumb Code     0  startup_stm32f411xe.o(.text)
    USART1_IRQHandler                        0x080001c7   Thumb Code     0  startup_stm32f411xe.o(.text)
    USART2_IRQHandler                        0x080001c7   Thumb Code     0  startup_stm32f411xe.o(.text)
    USART6_IRQHandler                        0x080001c7   Thumb Code     0  startup_stm32f411xe.o(.text)
    WWDG_IRQHandler                          0x080001c7   Thumb Code     0  startup_stm32f411xe.o(.text)
    __aeabi_uldivmod                         0x080001d1   Thumb Code    98  uldiv.o(.text)
    __aeabi_memcpy                           0x08000233   Thumb Code    36  memcpya.o(.text)
    __aeabi_memcpy4                          0x08000233   Thumb Code     0  memcpya.o(.text)
    __aeabi_memcpy8                          0x08000233   Thumb Code     0  memcpya.o(.text)
    __0sscanf                                0x08000259   Thumb Code    48  __0sscanf.o(.text)
    _scanf_int                               0x08000291   Thumb Code   332  _scanf_int.o(.text)
    _scanf_string                            0x080003dd   Thumb Code   224  _scanf_str.o(.text)
    __aeabi_uidiv                            0x080004bd   Thumb Code     0  uidiv.o(.text)
    __aeabi_uidivmod                         0x080004bd   Thumb Code    44  uidiv.o(.text)
    __aeabi_llsl                             0x080004e9   Thumb Code    30  llshl.o(.text)
    _ll_shift_l                              0x080004e9   Thumb Code     0  llshl.o(.text)
    __aeabi_llsr                             0x08000507   Thumb Code    32  llushr.o(.text)
    _ll_ushift_r                             0x08000507   Thumb Code     0  llushr.o(.text)
    _chval                                   0x08000527   Thumb Code    28  _chval.o(.text)
    __vfscanf_char                           0x08000551   Thumb Code    20  scanf_char.o(.text)
    _sgetc                                   0x0800056d   Thumb Code    30  _sgetc.o(.text)
    _sbackspace                              0x0800058b   Thumb Code    34  _sgetc.o(.text)
    __scatterload                            0x080005ad   Thumb Code    28  init.o(.text)
    __scatterload_rt2                        0x080005ad   Thumb Code     0  init.o(.text)
    isspace                                  0x080005d1   Thumb Code    10  isspace_c.o(.text)
    __vfscanf                                0x080005dd   Thumb Code   808  _scanf.o(.text)
    __ctype_lookup                           0x08000909   Thumb Code    34  ctype_c.o(.text)
    __decompress                             0x08000931   Thumb Code     0  __dclz77c.o(.text)
    __decompress2                            0x08000931   Thumb Code    94  __dclz77c.o(.text)
    BusFault_Handler                         0x0800098f   Thumb Code     2  stm32f4xx_it.o(i.BusFault_Handler)
    CDC_Transmit_FS                          0x080009ed   Thumb Code    38  usbd_cdc_if.o(i.CDC_Transmit_FS)
    DebugMon_Handler                         0x08000a19   Thumb Code     2  stm32f4xx_it.o(i.DebugMon_Handler)
    HAL_Delay                                0x08000a1d   Thumb Code    32  stm32f4xx_hal.o(i.HAL_Delay)
    HAL_GPIO_Init                            0x08000a41   Thumb Code   358  stm32f4xx_hal_gpio.o(i.HAL_GPIO_Init)
    HAL_GPIO_WritePin                        0x08000bc9   Thumb Code    10  stm32f4xx_hal_gpio.o(i.HAL_GPIO_WritePin)
    HAL_GetTick                              0x08000bd5   Thumb Code     6  stm32f4xx_hal.o(i.HAL_GetTick)
    HAL_IncTick                              0x08000be1   Thumb Code    12  stm32f4xx_hal.o(i.HAL_IncTick)
    HAL_Init                                 0x08000bf1   Thumb Code    48  stm32f4xx_hal.o(i.HAL_Init)
    HAL_InitTick                             0x08000c25   Thumb Code    54  stm32f4xx_hal.o(i.HAL_InitTick)
    HAL_MspInit                              0x08000c65   Thumb Code    88  stm32f4xx_hal_msp.o(i.HAL_MspInit)
    HAL_NVIC_EnableIRQ                       0x08000cbd   Thumb Code    22  stm32f4xx_hal_cortex.o(i.HAL_NVIC_EnableIRQ)
    HAL_NVIC_SetPriority                     0x08000cd5   Thumb Code    60  stm32f4xx_hal_cortex.o(i.HAL_NVIC_SetPriority)
    HAL_NVIC_SetPriorityGrouping             0x08000d15   Thumb Code    26  stm32f4xx_hal_cortex.o(i.HAL_NVIC_SetPriorityGrouping)
    HAL_PCDEx_SetRxFiFo                      0x08000d39   Thumb Code     8  stm32f4xx_hal_pcd_ex.o(i.HAL_PCDEx_SetRxFiFo)
    HAL_PCDEx_SetTxFiFo                      0x08000d41   Thumb Code    68  stm32f4xx_hal_pcd_ex.o(i.HAL_PCDEx_SetTxFiFo)
    HAL_PCD_ConnectCallback                  0x08000d85   Thumb Code     8  usbd_conf.o(i.HAL_PCD_ConnectCallback)
    HAL_PCD_DataInStageCallback              0x08000d8d   Thumb Code    18  usbd_conf.o(i.HAL_PCD_DataInStageCallback)
    HAL_PCD_DataOutStageCallback             0x08000d9f   Thumb Code    20  usbd_conf.o(i.HAL_PCD_DataOutStageCallback)
    HAL_PCD_DisconnectCallback               0x08000db3   Thumb Code     8  usbd_conf.o(i.HAL_PCD_DisconnectCallback)
    HAL_PCD_EP_Close                         0x08000dbb   Thumb Code    68  stm32f4xx_hal_pcd.o(i.HAL_PCD_EP_Close)
    HAL_PCD_EP_ClrStall                      0x08000dff   Thumb Code    80  stm32f4xx_hal_pcd.o(i.HAL_PCD_EP_ClrStall)
    HAL_PCD_EP_GetRxCount                    0x08000e4f   Thumb Code    20  stm32f4xx_hal_pcd.o(i.HAL_PCD_EP_GetRxCount)
    HAL_PCD_EP_Open                          0x08000e63   Thumb Code    84  stm32f4xx_hal_pcd.o(i.HAL_PCD_EP_Open)
    HAL_PCD_EP_Receive                       0x08000eb7   Thumb Code    72  stm32f4xx_hal_pcd.o(i.HAL_PCD_EP_Receive)
    HAL_PCD_EP_SetStall                      0x08000eff   Thumb Code    96  stm32f4xx_hal_pcd.o(i.HAL_PCD_EP_SetStall)
    HAL_PCD_EP_Transmit                      0x08000f5f   Thumb Code    64  stm32f4xx_hal_pcd.o(i.HAL_PCD_EP_Transmit)
    HAL_PCD_IRQHandler                       0x08000fa1   Thumb Code  1196  stm32f4xx_hal_pcd.o(i.HAL_PCD_IRQHandler)
    HAL_PCD_ISOINIncompleteCallback          0x08001495   Thumb Code     8  usbd_conf.o(i.HAL_PCD_ISOINIncompleteCallback)
    HAL_PCD_ISOOUTIncompleteCallback         0x0800149d   Thumb Code     8  usbd_conf.o(i.HAL_PCD_ISOOUTIncompleteCallback)
    HAL_PCD_Init                             0x080014a5   Thumb Code   190  stm32f4xx_hal_pcd.o(i.HAL_PCD_Init)
    HAL_PCD_MspInit                          0x08001565   Thumb Code    92  usbd_conf.o(i.HAL_PCD_MspInit)
    HAL_PCD_ResetCallback                    0x080015c9   Thumb Code    32  usbd_conf.o(i.HAL_PCD_ResetCallback)
    HAL_PCD_ResumeCallback                   0x080015e9   Thumb Code     8  usbd_conf.o(i.HAL_PCD_ResumeCallback)
    HAL_PCD_SOFCallback                      0x080015f1   Thumb Code     8  usbd_conf.o(i.HAL_PCD_SOFCallback)
    HAL_PCD_SetAddress                       0x080015f9   Thumb Code    36  stm32f4xx_hal_pcd.o(i.HAL_PCD_SetAddress)
    HAL_PCD_SetupStageCallback               0x0800161d   Thumb Code    14  usbd_conf.o(i.HAL_PCD_SetupStageCallback)
    HAL_PCD_Start                            0x0800162b   Thumb Code    42  stm32f4xx_hal_pcd.o(i.HAL_PCD_Start)
    HAL_PCD_SuspendCallback                  0x08001655   Thumb Code    44  usbd_conf.o(i.HAL_PCD_SuspendCallback)
    HAL_RCC_ClockConfig                      0x08001685   Thumb Code   286  stm32f4xx_hal_rcc.o(i.HAL_RCC_ClockConfig)
    HAL_RCC_GetHCLKFreq                      0x080017b5   Thumb Code     6  stm32f4xx_hal_rcc.o(i.HAL_RCC_GetHCLKFreq)
    HAL_RCC_GetSysClockFreq                  0x080017c1   Thumb Code    88  stm32f4xx_hal_rcc.o(i.HAL_RCC_GetSysClockFreq)
    HAL_RCC_OscConfig                        0x08001821   Thumb Code   770  stm32f4xx_hal_rcc.o(i.HAL_RCC_OscConfig)
    HAL_SYSTICK_CLKSourceConfig              0x08001b3d   Thumb Code    24  stm32f4xx_hal_cortex.o(i.HAL_SYSTICK_CLKSourceConfig)
    HAL_SYSTICK_Callback                     0x08001b55   Thumb Code     2  stm32f4xx_hal_cortex.o(i.HAL_SYSTICK_Callback)
    HAL_SYSTICK_Config                       0x08001b57   Thumb Code    40  stm32f4xx_hal_cortex.o(i.HAL_SYSTICK_Config)
    HAL_SYSTICK_IRQHandler                   0x08001b7f   Thumb Code     8  stm32f4xx_hal_cortex.o(i.HAL_SYSTICK_IRQHandler)
    HAL_TIMEx_BreakCallback                  0x08001b87   Thumb Code     2  stm32f4xx_hal_tim_ex.o(i.HAL_TIMEx_BreakCallback)
    HAL_TIMEx_CommutationCallback            0x08001b89   Thumb Code     2  stm32f4xx_hal_tim_ex.o(i.HAL_TIMEx_CommutationCallback)
    HAL_TIMEx_MasterConfigSynchronization    0x08001b8b   Thumb Code    80  stm32f4xx_hal_tim_ex.o(i.HAL_TIMEx_MasterConfigSynchronization)
    HAL_TIM_Base_Init                        0x08001bdb   Thumb Code    54  stm32f4xx_hal_tim.o(i.HAL_TIM_Base_Init)
    HAL_TIM_Base_MspInit                     0x08001c11   Thumb Code    50  tim.o(i.HAL_TIM_Base_MspInit)
    HAL_TIM_ConfigClockSource                0x08001c4d   Thumb Code   242  stm32f4xx_hal_tim.o(i.HAL_TIM_ConfigClockSource)
    HAL_TIM_IC_CaptureCallback               0x08001d3f   Thumb Code     2  stm32f4xx_hal_tim.o(i.HAL_TIM_IC_CaptureCallback)
    HAL_TIM_IRQHandler                       0x08001d41   Thumb Code   358  stm32f4xx_hal_tim.o(i.HAL_TIM_IRQHandler)
    HAL_TIM_OC_DelayElapsedCallback          0x08001ea7   Thumb Code     2  stm32f4xx_hal_tim.o(i.HAL_TIM_OC_DelayElapsedCallback)
    HAL_TIM_PWM_PulseFinishedCallback        0x08001ea9   Thumb Code     2  stm32f4xx_hal_tim.o(i.HAL_TIM_PWM_PulseFinishedCallback)
    HAL_TIM_PeriodElapsedCallback            0x08001ead   Thumb Code    60  main.o(i.HAL_TIM_PeriodElapsedCallback)
    HAL_TIM_TriggerCallback                  0x08001ef5   Thumb Code     2  stm32f4xx_hal_tim.o(i.HAL_TIM_TriggerCallback)
    HardFault_Handler                        0x08001ef7   Thumb Code     2  stm32f4xx_it.o(i.HardFault_Handler)
    MX_GPIO_Init                             0x08001ef9   Thumb Code   310  gpio.o(i.MX_GPIO_Init)
    MX_TIM1_Init                             0x08002049   Thumb Code    92  tim.o(i.MX_TIM1_Init)
    MX_USB_DEVICE_Init                       0x080020bd   Thumb Code    38  usb_device.o(i.MX_USB_DEVICE_Init)
    MemManage_Handler                        0x080020f5   Thumb Code     2  stm32f4xx_it.o(i.MemManage_Handler)
    NMI_Handler                              0x080020f7   Thumb Code     2  stm32f4xx_it.o(i.NMI_Handler)
    OTG_FS_IRQHandler                        0x08002119   Thumb Code     6  stm32f4xx_it.o(i.OTG_FS_IRQHandler)
    PendSV_Handler                           0x080021ad   Thumb Code     2  stm32f4xx_it.o(i.PendSV_Handler)
    SVC_Handler                              0x080021af   Thumb Code     2  stm32f4xx_it.o(i.SVC_Handler)
    SysTick_Handler                          0x080021b1   Thumb Code    14  stm32f4xx_it.o(i.SysTick_Handler)
    SystemClock_Config                       0x080021c1   Thumb Code   146  main.o(i.SystemClock_Config)
    SystemInit                               0x0800225d   Thumb Code    66  system_stm32f4xx.o(i.SystemInit)
    TIM1_UP_TIM10_IRQHandler                 0x080022b1   Thumb Code     6  stm32f4xx_it.o(i.TIM1_UP_TIM10_IRQHandler)
    TIM_Base_SetConfig                       0x080022bd   Thumb Code   114  stm32f4xx_hal_tim.o(i.TIM_Base_SetConfig)
    USBD_CDC_GetDeviceQualifierDescriptor    0x08002459   Thumb Code     8  usbd_cdc.o(i.USBD_CDC_GetDeviceQualifierDescriptor)
    USBD_CDC_ReceivePacket                   0x08002511   Thumb Code    40  usbd_cdc.o(i.USBD_CDC_ReceivePacket)
    USBD_CDC_RegisterInterface               0x08002539   Thumb Code    16  usbd_cdc.o(i.USBD_CDC_RegisterInterface)
    USBD_CDC_SetRxBuffer                     0x08002549   Thumb Code    12  usbd_cdc.o(i.USBD_CDC_SetRxBuffer)
    USBD_CDC_SetTxBuffer                     0x08002555   Thumb Code    16  usbd_cdc.o(i.USBD_CDC_SetTxBuffer)
    USBD_CDC_TransmitPacket                  0x080025d5   Thumb Code    48  usbd_cdc.o(i.USBD_CDC_TransmitPacket)
    USBD_ClrClassConfig                      0x08002605   Thumb Code    14  usbd_core.o(i.USBD_ClrClassConfig)
    USBD_CtlContinueRx                       0x08002613   Thumb Code    16  usbd_ioreq.o(i.USBD_CtlContinueRx)
    USBD_CtlContinueSendData                 0x08002623   Thumb Code    16  usbd_ioreq.o(i.USBD_CtlContinueSendData)
    USBD_CtlError                            0x08002633   Thumb Code    22  usbd_ctlreq.o(i.USBD_CtlError)
    USBD_CtlPrepareRx                        0x08002649   Thumb Code    30  usbd_ioreq.o(i.USBD_CtlPrepareRx)
    USBD_CtlReceiveStatus                    0x08002667   Thumb Code    22  usbd_ioreq.o(i.USBD_CtlReceiveStatus)
    USBD_CtlSendData                         0x0800267d   Thumb Code    26  usbd_ioreq.o(i.USBD_CtlSendData)
    USBD_CtlSendStatus                       0x08002697   Thumb Code    22  usbd_ioreq.o(i.USBD_CtlSendStatus)
    USBD_FS_ConfigStrDescriptor              0x080026ad   Thumb Code    16  usbd_desc.o(i.USBD_FS_ConfigStrDescriptor)
    USBD_FS_DeviceDescriptor                 0x080026cd   Thumb Code     8  usbd_desc.o(i.USBD_FS_DeviceDescriptor)
    USBD_FS_InterfaceStrDescriptor           0x080026d9   Thumb Code    16  usbd_desc.o(i.USBD_FS_InterfaceStrDescriptor)
    USBD_FS_LangIDStrDescriptor              0x080026fd   Thumb Code     8  usbd_desc.o(i.USBD_FS_LangIDStrDescriptor)
    USBD_FS_ManufacturerStrDescriptor        0x08002709   Thumb Code    16  usbd_desc.o(i.USBD_FS_ManufacturerStrDescriptor)
    USBD_FS_ProductStrDescriptor             0x08002731   Thumb Code    16  usbd_desc.o(i.USBD_FS_ProductStrDescriptor)
    USBD_FS_SerialStrDescriptor              0x0800275d   Thumb Code    16  usbd_desc.o(i.USBD_FS_SerialStrDescriptor)
    USBD_GetString                           0x08002861   Thumb Code    70  usbd_ctlreq.o(i.USBD_GetString)
    USBD_Init                                0x080028a7   Thumb Code    42  usbd_core.o(i.USBD_Init)
    USBD_LL_ClearStallEP                     0x080028d1   Thumb Code    32  usbd_conf.o(i.USBD_LL_ClearStallEP)
    USBD_LL_CloseEP                          0x080028f1   Thumb Code    32  usbd_conf.o(i.USBD_LL_CloseEP)
    USBD_LL_DataInStage                      0x08002911   Thumb Code   170  usbd_core.o(i.USBD_LL_DataInStage)
    USBD_LL_DataOutStage                     0x080029bb   Thumb Code   106  usbd_core.o(i.USBD_LL_DataOutStage)
    USBD_LL_DevConnected                     0x08002a25   Thumb Code     4  usbd_core.o(i.USBD_LL_DevConnected)
    USBD_LL_DevDisconnected                  0x08002a29   Thumb Code    22  usbd_core.o(i.USBD_LL_DevDisconnected)
    USBD_LL_GetRxDataSize                    0x08002a3f   Thumb Code     8  usbd_conf.o(i.USBD_LL_GetRxDataSize)
    USBD_LL_Init                             0x08002a49   Thumb Code    98  usbd_conf.o(i.USBD_LL_Init)
    USBD_LL_IsStallEP                        0x08002ac5   Thumb Code    32  usbd_conf.o(i.USBD_LL_IsStallEP)
    USBD_LL_IsoINIncomplete                  0x08002ae5   Thumb Code     4  usbd_core.o(i.USBD_LL_IsoINIncomplete)
    USBD_LL_IsoOUTIncomplete                 0x08002ae9   Thumb Code     4  usbd_core.o(i.USBD_LL_IsoOUTIncomplete)
    USBD_LL_OpenEP                           0x08002aed   Thumb Code    38  usbd_conf.o(i.USBD_LL_OpenEP)
    USBD_LL_PrepareReceive                   0x08002b13   Thumb Code    32  usbd_conf.o(i.USBD_LL_PrepareReceive)
    USBD_LL_Reset                            0x08002b33   Thumb Code    62  usbd_core.o(i.USBD_LL_Reset)
    USBD_LL_Resume                           0x08002b71   Thumb Code    12  usbd_core.o(i.USBD_LL_Resume)
    USBD_LL_SOF                              0x08002b7d   Thumb Code    24  usbd_core.o(i.USBD_LL_SOF)
    USBD_LL_SetSpeed                         0x08002b95   Thumb Code     6  usbd_core.o(i.USBD_LL_SetSpeed)
    USBD_LL_SetUSBAddress                    0x08002b9b   Thumb Code    32  usbd_conf.o(i.USBD_LL_SetUSBAddress)
    USBD_LL_SetupStage                       0x08002bbb   Thumb Code    90  usbd_core.o(i.USBD_LL_SetupStage)
    USBD_LL_StallEP                          0x08002c15   Thumb Code    32  usbd_conf.o(i.USBD_LL_StallEP)
    USBD_LL_Start                            0x08002c35   Thumb Code    32  usbd_conf.o(i.USBD_LL_Start)
    USBD_LL_Suspend                          0x08002c55   Thumb Code    18  usbd_core.o(i.USBD_LL_Suspend)
    USBD_LL_Transmit                         0x08002c67   Thumb Code    32  usbd_conf.o(i.USBD_LL_Transmit)
    USBD_ParseSetupRequest                   0x08002c87   Thumb Code    40  usbd_ctlreq.o(i.USBD_ParseSetupRequest)
    USBD_RegisterClass                       0x08002caf   Thumb Code    16  usbd_core.o(i.USBD_RegisterClass)
    USBD_SetClassConfig                      0x08002cbf   Thumb Code    22  usbd_core.o(i.USBD_SetClassConfig)
    USBD_Start                               0x08002d49   Thumb Code    10  usbd_core.o(i.USBD_Start)
    USBD_StdDevReq                           0x08002d53   Thumb Code   242  usbd_ctlreq.o(i.USBD_StdDevReq)
    USBD_StdEPReq                            0x08002e45   Thumb Code   220  usbd_ctlreq.o(i.USBD_StdEPReq)
    USBD_StdItfReq                           0x08002f21   Thumb Code    52  usbd_ctlreq.o(i.USBD_StdItfReq)
    USB_ActivateEndpoint                     0x08002f55   Thumb Code   122  stm32f4xx_ll_usb.o(i.USB_ActivateEndpoint)
    USB_ActivateSetup                        0x08002fd5   Thumb Code    52  stm32f4xx_ll_usb.o(i.USB_ActivateSetup)
    USB_CoreInit                             0x08003009   Thumb Code   104  stm32f4xx_ll_usb.o(i.USB_CoreInit)
    USB_DeactivateEndpoint                   0x080030ad   Thumb Code   196  stm32f4xx_ll_usb.o(i.USB_DeactivateEndpoint)
    USB_DevConnect                           0x08003175   Thumb Code    24  stm32f4xx_ll_usb.o(i.USB_DevConnect)
    USB_DevDisconnect                        0x0800318d   Thumb Code    24  stm32f4xx_ll_usb.o(i.USB_DevDisconnect)
    USB_DevInit                              0x080031a5   Thumb Code   302  stm32f4xx_ll_usb.o(i.USB_DevInit)
    USB_DisableGlobalInt                     0x080032e5   Thumb Code    12  stm32f4xx_ll_usb.o(i.USB_DisableGlobalInt)
    USB_EP0StartXfer                         0x080032f1   Thumb Code   316  stm32f4xx_ll_usb.o(i.USB_EP0StartXfer)
    USB_EP0_OutStart                         0x08003431   Thumb Code    62  stm32f4xx_ll_usb.o(i.USB_EP0_OutStart)
    USB_EPClearStall                         0x0800346f   Thumb Code   100  stm32f4xx_ll_usb.o(i.USB_EPClearStall)
    USB_EPSetStall                           0x080034d3   Thumb Code    94  stm32f4xx_ll_usb.o(i.USB_EPSetStall)
    USB_EPStartXfer                          0x08003531   Thumb Code   534  stm32f4xx_ll_usb.o(i.USB_EPStartXfer)
    USB_EnableGlobalInt                      0x0800374d   Thumb Code    12  stm32f4xx_ll_usb.o(i.USB_EnableGlobalInt)
    USB_FlushRxFifo                          0x08003759   Thumb Code    28  stm32f4xx_ll_usb.o(i.USB_FlushRxFifo)
    USB_FlushTxFifo                          0x08003779   Thumb Code    32  stm32f4xx_ll_usb.o(i.USB_FlushTxFifo)
    USB_GetDevSpeed                          0x0800379d   Thumb Code    60  stm32f4xx_ll_usb.o(i.USB_GetDevSpeed)
    USB_GetMode                              0x080037d9   Thumb Code     8  stm32f4xx_ll_usb.o(i.USB_GetMode)
    USB_ReadDevAllInEpInterrupt              0x080037e1   Thumb Code    14  stm32f4xx_ll_usb.o(i.USB_ReadDevAllInEpInterrupt)
    USB_ReadDevAllOutEpInterrupt             0x080037ef   Thumb Code    14  stm32f4xx_ll_usb.o(i.USB_ReadDevAllOutEpInterrupt)
    USB_ReadDevInEPInterrupt                 0x080037fd   Thumb Code    30  stm32f4xx_ll_usb.o(i.USB_ReadDevInEPInterrupt)
    USB_ReadDevOutEPInterrupt                0x0800381b   Thumb Code    16  stm32f4xx_ll_usb.o(i.USB_ReadDevOutEPInterrupt)
    USB_ReadInterrupts                       0x0800382b   Thumb Code     8  stm32f4xx_ll_usb.o(i.USB_ReadInterrupts)
    USB_ReadPacket                           0x08003833   Thumb Code    32  stm32f4xx_ll_usb.o(i.USB_ReadPacket)
    USB_SetCurrentMode                       0x08003853   Thumb Code    44  stm32f4xx_ll_usb.o(i.USB_SetCurrentMode)
    USB_SetDevAddress                        0x0800387f   Thumb Code    34  stm32f4xx_ll_usb.o(i.USB_SetDevAddress)
    USB_WritePacket                          0x080038a1   Thumb Code    40  stm32f4xx_ll_usb.o(i.USB_WritePacket)
    UsageFault_Handler                       0x080038c9   Thumb Code     2  stm32f4xx_it.o(i.UsageFault_Handler)
    _Error_Handler                           0x080038cb   Thumb Code     2  main.o(i._Error_Handler)
    __0sprintf$6                             0x080038cd   Thumb Code    34  printf6.o(i.__0sprintf$6)
    __1sprintf$6                             0x080038cd   Thumb Code     0  printf6.o(i.__0sprintf$6)
    __2sprintf                               0x080038cd   Thumb Code     0  printf6.o(i.__0sprintf$6)
    __scatterload_copy                       0x080038f5   Thumb Code    14  handlers.o(i.__scatterload_copy)
    __scatterload_null                       0x08003903   Thumb Code     2  handlers.o(i.__scatterload_null)
    __scatterload_zeroinit                   0x08003905   Thumb Code    14  handlers.o(i.__scatterload_zeroinit)
    char_to_port                             0x08003c61   Thumb Code    42  main.o(i.char_to_port)
    free                                     0x08003ca1   Thumb Code    76  malloc.o(i.free)
    main                                     0x08003cf1   Thumb Code    22  main.o(i.main)
    malloc                                   0x08003d09   Thumb Code    92  malloc.o(i.malloc)
    parser                                   0x08003d75   Thumb Code   164  main.o(i.parser)
    port_to_char                             0x08003e35   Thumb Code    54  main.o(i.port_to_char)
    print_error                              0x08003e81   Thumb Code    22  main.o(i.print_error)
    print_ok                                 0x08003ea1   Thumb Code    32  main.o(i.print_ok)
    AHBPrescTable                            0x08003ed4   Data          16  system_stm32f4xx.o(.constdata)
    __ctype_categories                       0x08003ee4   Data          64  ctype_c.o(.constdata)
    Region$$Table$$Base                      0x08003f24   Number         0  anon$$obj.o(Region$$Table)
    Region$$Table$$Limit                     0x08003f44   Number         0  anon$$obj.o(Region$$Table)
    USBD_CDC_CfgHSDesc                       0x20000010   Data          67  usbd_cdc.o(.data)
    USBD_CDC_CfgFSDesc                       0x20000054   Data          67  usbd_cdc.o(.data)
    USBD_CDC_OtherSpeedCfgDesc               0x20000098   Data          67  usbd_cdc.o(.data)
    USBD_CDC                                 0x200000dc   Data          56  usbd_cdc.o(.data)
    FS_Desc                                  0x20000118   Data          28  usbd_desc.o(.data)
    USBD_LangIDDesc                          0x20000134   Data           4  usbd_desc.o(.data)
    USBD_FS_DeviceDesc                       0x20000138   Data          18  usbd_desc.o(.data)
    USBD_Interface_fops_FS                   0x200003ac   Data          16  usbd_cdc_if.o(.data)
    uwTickFreq                               0x200003bc   Data           1  stm32f4xx_hal.o(.data)
    uwTickPrio                               0x200003c0   Data           4  stm32f4xx_hal.o(.data)
    uwTick                                   0x200003c4   Data           4  stm32f4xx_hal.o(.data)
    SystemCoreClock                          0x200003c8   Data           4  system_stm32f4xx.o(.data)
    __microlib_freelist                      0x200003cc   Data           4  mvars.o(.data)
    __microlib_freelist_initialised          0x200003d0   Data           4  mvars.o(.data)
    hUsbDeviceFS                             0x200003d4   Data         548  usb_device.o(.bss)
    htim1                                    0x200005f8   Data          60  tim.o(.bss)
    USBD_StrDesc                             0x20000634   Data         512  usbd_desc.o(.bss)
    hpcd_USB_OTG_FS                          0x20000834   Data        1008  usbd_conf.o(.bss)
    periods                                  0x20000c24   Data          75  main.o(.bss)
    UserRxBufferFS                           0x20000d7f   Data        2048  usbd_cdc_if.o(.bss)
    UserTxBufferFS                           0x2000157f   Data        2048  usbd_cdc_if.o(.bss)
    __heap_base                              0x20001d80   Data           0  startup_stm32f411xe.o(HEAP)
    __heap_limit                             0x20002180   Data           0  startup_stm32f411xe.o(HEAP)
    __initial_sp                             0x20002580   Data           0  startup_stm32f411xe.o(STACK)



==============================================================================

Memory Map of the image

  Image Entry point : 0x08000199

  Load Region LR_IROM1 (Base: 0x08000000, Size: 0x00004318, Max: 0x00080000, ABSOLUTE, COMPRESSED[0x000040f8])

    Execution Region ER_IROM1 (Exec base: 0x08000000, Load base: 0x08000000, Size: 0x00003f44, Max: 0x00080000, ABSOLUTE)

    Exec Addr    Load Addr    Size         Type   Attr      Idx    E Section Name        Object

    0x08000000   0x08000000   0x00000198   Data   RO            3    RESET               startup_stm32f411xe.o
    0x08000198   0x08000198   0x00000000   Code   RO         3672  * .ARM.Collect$$$$00000000  mc_w.l(entry.o)
    0x08000198   0x08000198   0x00000004   Code   RO         3976    .ARM.Collect$$$$00000001  mc_w.l(entry2.o)
    0x0800019c   0x0800019c   0x00000004   Code   RO         3979    .ARM.Collect$$$$00000004  mc_w.l(entry5.o)
    0x080001a0   0x080001a0   0x00000000   Code   RO         3981    .ARM.Collect$$$$00000008  mc_w.l(entry7b.o)
    0x080001a0   0x080001a0   0x00000000   Code   RO         3983    .ARM.Collect$$$$0000000A  mc_w.l(entry8b.o)
    0x080001a0   0x080001a0   0x00000008   Code   RO         3984    .ARM.Collect$$$$0000000B  mc_w.l(entry9a.o)
    0x080001a8   0x080001a8   0x00000000   Code   RO         3986    .ARM.Collect$$$$0000000D  mc_w.l(entry10a.o)
    0x080001a8   0x080001a8   0x00000000   Code   RO         3988    .ARM.Collect$$$$0000000F  mc_w.l(entry11a.o)
    0x080001a8   0x080001a8   0x00000004   Code   RO         3977    .ARM.Collect$$$$00002712  mc_w.l(entry2.o)
    0x080001ac   0x080001ac   0x00000024   Code   RO            4    .text               startup_stm32f411xe.o
    0x080001d0   0x080001d0   0x00000062   Code   RO         3675    .text               mc_w.l(uldiv.o)
    0x08000232   0x08000232   0x00000024   Code   RO         3677    .text               mc_w.l(memcpya.o)
    0x08000256   0x08000256   0x00000002   PAD
    0x08000258   0x08000258   0x00000038   Code   RO         3970    .text               mc_w.l(__0sscanf.o)
    0x08000290   0x08000290   0x0000014c   Code   RO         3972    .text               mc_w.l(_scanf_int.o)
    0x080003dc   0x080003dc   0x000000e0   Code   RO         3974    .text               mc_w.l(_scanf_str.o)
    0x080004bc   0x080004bc   0x0000002c   Code   RO         3993    .text               mc_w.l(uidiv.o)
    0x080004e8   0x080004e8   0x0000001e   Code   RO         3995    .text               mc_w.l(llshl.o)
    0x08000506   0x08000506   0x00000020   Code   RO         3997    .text               mc_w.l(llushr.o)
    0x08000526   0x08000526   0x0000001c   Code   RO         4001    .text               mc_w.l(_chval.o)
    0x08000542   0x08000542   0x00000002   PAD
    0x08000544   0x08000544   0x00000028   Code   RO         4003    .text               mc_w.l(scanf_char.o)
    0x0800056c   0x0800056c   0x00000040   Code   RO         4005    .text               mc_w.l(_sgetc.o)
    0x080005ac   0x080005ac   0x00000024   Code   RO         4018    .text               mc_w.l(init.o)
    0x080005d0   0x080005d0   0x0000000a   Code   RO         4023    .text               mc_w.l(isspace_c.o)
    0x080005da   0x080005da   0x00000002   PAD
    0x080005dc   0x080005dc   0x0000032c   Code   RO         4025    .text               mc_w.l(_scanf.o)
    0x08000908   0x08000908   0x00000028   Code   RO         4030    .text               mc_w.l(ctype_c.o)
    0x08000930   0x08000930   0x0000005e   Code   RO         4041    .text               mc_w.l(__dclz77c.o)
    0x0800098e   0x0800098e   0x00000002   Code   RO          587    i.BusFault_Handler  stm32f4xx_it.o
    0x08000990   0x08000990   0x00000004   Code   RO         1064    i.CDC_Control_FS    usbd_cdc_if.o
    0x08000994   0x08000994   0x00000004   Code   RO         1065    i.CDC_DeInit_FS     usbd_cdc_if.o
    0x08000998   0x08000998   0x00000024   Code   RO         1066    i.CDC_Init_FS       usbd_cdc_if.o
    0x080009bc   0x080009bc   0x00000030   Code   RO         1067    i.CDC_Receive_FS    usbd_cdc_if.o
    0x080009ec   0x080009ec   0x0000002c   Code   RO         1068    i.CDC_Transmit_FS   usbd_cdc_if.o
    0x08000a18   0x08000a18   0x00000002   Code   RO          588    i.DebugMon_Handler  stm32f4xx_it.o
    0x08000a1a   0x08000a1a   0x00000002   PAD
    0x08000a1c   0x08000a1c   0x00000024   Code   RO         1207    i.HAL_Delay         stm32f4xx_hal.o
    0x08000a40   0x08000a40   0x00000188   Code   RO         2281    i.HAL_GPIO_Init     stm32f4xx_hal_gpio.o
    0x08000bc8   0x08000bc8   0x0000000a   Code   RO         2285    i.HAL_GPIO_WritePin  stm32f4xx_hal_gpio.o
    0x08000bd2   0x08000bd2   0x00000002   PAD
    0x08000bd4   0x08000bd4   0x0000000c   Code   RO         1213    i.HAL_GetTick       stm32f4xx_hal.o
    0x08000be0   0x08000be0   0x00000010   Code   RO         1217    i.HAL_IncTick       stm32f4xx_hal.o
    0x08000bf0   0x08000bf0   0x00000034   Code   RO         1218    i.HAL_Init          stm32f4xx_hal.o
    0x08000c24   0x08000c24   0x00000040   Code   RO         1219    i.HAL_InitTick      stm32f4xx_hal.o
    0x08000c64   0x08000c64   0x00000058   Code   RO          932    i.HAL_MspInit       stm32f4xx_hal_msp.o
    0x08000cbc   0x08000cbc   0x00000016   Code   RO         3401    i.HAL_NVIC_EnableIRQ  stm32f4xx_hal_cortex.o
    0x08000cd2   0x08000cd2   0x00000002   PAD
    0x08000cd4   0x08000cd4   0x00000040   Code   RO         3407    i.HAL_NVIC_SetPriority  stm32f4xx_hal_cortex.o
    0x08000d14   0x08000d14   0x00000024   Code   RO         3408    i.HAL_NVIC_SetPriorityGrouping  stm32f4xx_hal_cortex.o
    0x08000d38   0x08000d38   0x00000008   Code   RO         1795    i.HAL_PCDEx_SetRxFiFo  stm32f4xx_hal_pcd_ex.o
    0x08000d40   0x08000d40   0x00000044   Code   RO         1796    i.HAL_PCDEx_SetTxFiFo  stm32f4xx_hal_pcd_ex.o
    0x08000d84   0x08000d84   0x00000008   Code   RO          743    i.HAL_PCD_ConnectCallback  usbd_conf.o
    0x08000d8c   0x08000d8c   0x00000012   Code   RO          744    i.HAL_PCD_DataInStageCallback  usbd_conf.o
    0x08000d9e   0x08000d9e   0x00000014   Code   RO          745    i.HAL_PCD_DataOutStageCallback  usbd_conf.o
    0x08000db2   0x08000db2   0x00000008   Code   RO          746    i.HAL_PCD_DisconnectCallback  usbd_conf.o
    0x08000dba   0x08000dba   0x00000044   Code   RO         1834    i.HAL_PCD_EP_Close  stm32f4xx_hal_pcd.o
    0x08000dfe   0x08000dfe   0x00000050   Code   RO         1835    i.HAL_PCD_EP_ClrStall  stm32f4xx_hal_pcd.o
    0x08000e4e   0x08000e4e   0x00000014   Code   RO         1837    i.HAL_PCD_EP_GetRxCount  stm32f4xx_hal_pcd.o
    0x08000e62   0x08000e62   0x00000054   Code   RO         1838    i.HAL_PCD_EP_Open   stm32f4xx_hal_pcd.o
    0x08000eb6   0x08000eb6   0x00000048   Code   RO         1839    i.HAL_PCD_EP_Receive  stm32f4xx_hal_pcd.o
    0x08000efe   0x08000efe   0x00000060   Code   RO         1840    i.HAL_PCD_EP_SetStall  stm32f4xx_hal_pcd.o
    0x08000f5e   0x08000f5e   0x00000040   Code   RO         1841    i.HAL_PCD_EP_Transmit  stm32f4xx_hal_pcd.o
    0x08000f9e   0x08000f9e   0x00000002   PAD
    0x08000fa0   0x08000fa0   0x000004f4   Code   RO         1843    i.HAL_PCD_IRQHandler  stm32f4xx_hal_pcd.o
    0x08001494   0x08001494   0x00000008   Code   RO          747    i.HAL_PCD_ISOINIncompleteCallback  usbd_conf.o
    0x0800149c   0x0800149c   0x00000008   Code   RO          748    i.HAL_PCD_ISOOUTIncompleteCallback  usbd_conf.o
    0x080014a4   0x080014a4   0x000000be   Code   RO         1846    i.HAL_PCD_Init      stm32f4xx_hal_pcd.o
    0x08001562   0x08001562   0x00000002   PAD
    0x08001564   0x08001564   0x00000064   Code   RO          750    i.HAL_PCD_MspInit   usbd_conf.o
    0x080015c8   0x080015c8   0x00000020   Code   RO          751    i.HAL_PCD_ResetCallback  usbd_conf.o
    0x080015e8   0x080015e8   0x00000008   Code   RO          752    i.HAL_PCD_ResumeCallback  usbd_conf.o
    0x080015f0   0x080015f0   0x00000008   Code   RO          753    i.HAL_PCD_SOFCallback  usbd_conf.o
    0x080015f8   0x080015f8   0x00000024   Code   RO         1852    i.HAL_PCD_SetAddress  stm32f4xx_hal_pcd.o
    0x0800161c   0x0800161c   0x0000000e   Code   RO          754    i.HAL_PCD_SetupStageCallback  usbd_conf.o
    0x0800162a   0x0800162a   0x0000002a   Code   RO         1854    i.HAL_PCD_Start     stm32f4xx_hal_pcd.o
    0x08001654   0x08001654   0x00000030   Code   RO          755    i.HAL_PCD_SuspendCallback  usbd_conf.o
    0x08001684   0x08001684   0x00000130   Code   RO         1372    i.HAL_RCC_ClockConfig  stm32f4xx_hal_rcc.o
    0x080017b4   0x080017b4   0x0000000c   Code   RO         1377    i.HAL_RCC_GetHCLKFreq  stm32f4xx_hal_rcc.o
    0x080017c0   0x080017c0   0x00000060   Code   RO         1381    i.HAL_RCC_GetSysClockFreq  stm32f4xx_hal_rcc.o
    0x08001820   0x08001820   0x0000031c   Code   RO         1384    i.HAL_RCC_OscConfig  stm32f4xx_hal_rcc.o
    0x08001b3c   0x08001b3c   0x00000018   Code   RO         3410    i.HAL_SYSTICK_CLKSourceConfig  stm32f4xx_hal_cortex.o
    0x08001b54   0x08001b54   0x00000002   Code   RO         3411    i.HAL_SYSTICK_Callback  stm32f4xx_hal_cortex.o
    0x08001b56   0x08001b56   0x00000028   Code   RO         3412    i.HAL_SYSTICK_Config  stm32f4xx_hal_cortex.o
    0x08001b7e   0x08001b7e   0x00000008   Code   RO         3413    i.HAL_SYSTICK_IRQHandler  stm32f4xx_hal_cortex.o
    0x08001b86   0x08001b86   0x00000002   Code   RO         1514    i.HAL_TIMEx_BreakCallback  stm32f4xx_hal_tim_ex.o
    0x08001b88   0x08001b88   0x00000002   Code   RO         1515    i.HAL_TIMEx_CommutationCallback  stm32f4xx_hal_tim_ex.o
    0x08001b8a   0x08001b8a   0x00000050   Code   RO         1531    i.HAL_TIMEx_MasterConfigSynchronization  stm32f4xx_hal_tim_ex.o
    0x08001bda   0x08001bda   0x00000036   Code   RO         2767    i.HAL_TIM_Base_Init  stm32f4xx_hal_tim.o
    0x08001c10   0x08001c10   0x0000003c   Code   RO          546    i.HAL_TIM_Base_MspInit  tim.o
    0x08001c4c   0x08001c4c   0x000000f2   Code   RO         2776    i.HAL_TIM_ConfigClockSource  stm32f4xx_hal_tim.o
    0x08001d3e   0x08001d3e   0x00000002   Code   RO         2796    i.HAL_TIM_IC_CaptureCallback  stm32f4xx_hal_tim.o
    0x08001d40   0x08001d40   0x00000166   Code   RO         2809    i.HAL_TIM_IRQHandler  stm32f4xx_hal_tim.o
    0x08001ea6   0x08001ea6   0x00000002   Code   RO         2812    i.HAL_TIM_OC_DelayElapsedCallback  stm32f4xx_hal_tim.o
    0x08001ea8   0x08001ea8   0x00000002   Code   RO         2839    i.HAL_TIM_PWM_PulseFinishedCallback  stm32f4xx_hal_tim.o
    0x08001eaa   0x08001eaa   0x00000002   PAD
    0x08001eac   0x08001eac   0x00000048   Code   RO          956    i.HAL_TIM_PeriodElapsedCallback  main.o
    0x08001ef4   0x08001ef4   0x00000002   Code   RO         2850    i.HAL_TIM_TriggerCallback  stm32f4xx_hal_tim.o
    0x08001ef6   0x08001ef6   0x00000002   Code   RO          589    i.HardFault_Handler  stm32f4xx_it.o
    0x08001ef8   0x08001ef8   0x00000150   Code   RO         1040    i.MX_GPIO_Init      gpio.o
    0x08002048   0x08002048   0x00000074   Code   RO          547    i.MX_TIM1_Init      tim.o
    0x080020bc   0x080020bc   0x00000038   Code   RO          507    i.MX_USB_DEVICE_Init  usb_device.o
    0x080020f4   0x080020f4   0x00000002   Code   RO          590    i.MemManage_Handler  stm32f4xx_it.o
    0x080020f6   0x080020f6   0x00000002   Code   RO          591    i.NMI_Handler       stm32f4xx_it.o
    0x080020f8   0x080020f8   0x00000020   Code   RO         3414    i.NVIC_SetPriority  stm32f4xx_hal_cortex.o
    0x08002118   0x08002118   0x0000000c   Code   RO          592    i.OTG_FS_IRQHandler  stm32f4xx_it.o
    0x08002124   0x08002124   0x00000088   Code   RO         1857    i.PCD_WriteEmptyTxFifo  stm32f4xx_hal_pcd.o
    0x080021ac   0x080021ac   0x00000002   Code   RO          593    i.PendSV_Handler    stm32f4xx_it.o
    0x080021ae   0x080021ae   0x00000002   Code   RO          594    i.SVC_Handler       stm32f4xx_it.o
    0x080021b0   0x080021b0   0x0000000e   Code   RO          595    i.SysTick_Handler   stm32f4xx_it.o
    0x080021be   0x080021be   0x00000002   PAD
    0x080021c0   0x080021c0   0x0000009c   Code   RO          957    i.SystemClock_Config  main.o
    0x0800225c   0x0800225c   0x00000054   Code   RO         3638    i.SystemInit        system_stm32f4xx.o
    0x080022b0   0x080022b0   0x0000000c   Code   RO          596    i.TIM1_UP_TIM10_IRQHandler  stm32f4xx_it.o
    0x080022bc   0x080022bc   0x00000090   Code   RO         2851    i.TIM_Base_SetConfig  stm32f4xx_hal_tim.o
    0x0800234c   0x0800234c   0x00000014   Code   RO         2858    i.TIM_ETR_SetConfig  stm32f4xx_hal_tim.o
    0x08002360   0x08002360   0x00000010   Code   RO         2859    i.TIM_ITRx_SetConfig  stm32f4xx_hal_tim.o
    0x08002370   0x08002370   0x00000022   Code   RO         2865    i.TIM_TI1_ConfigInputStage  stm32f4xx_hal_tim.o
    0x08002392   0x08002392   0x00000024   Code   RO         2867    i.TIM_TI2_ConfigInputStage  stm32f4xx_hal_tim.o
    0x080023b6   0x080023b6   0x00000014   Code   RO          194    i.USBD_CDC_DataIn   usbd_cdc.o
    0x080023ca   0x080023ca   0x0000002e   Code   RO          195    i.USBD_CDC_DataOut  usbd_cdc.o
    0x080023f8   0x080023f8   0x0000003c   Code   RO          196    i.USBD_CDC_DeInit   usbd_cdc.o
    0x08002434   0x08002434   0x00000024   Code   RO          197    i.USBD_CDC_EP0_RxReady  usbd_cdc.o
    0x08002458   0x08002458   0x0000000c   Code   RO          198    i.USBD_CDC_GetDeviceQualifierDescriptor  usbd_cdc.o
    0x08002464   0x08002464   0x0000000c   Code   RO          199    i.USBD_CDC_GetFSCfgDesc  usbd_cdc.o
    0x08002470   0x08002470   0x0000000c   Code   RO          200    i.USBD_CDC_GetHSCfgDesc  usbd_cdc.o
    0x0800247c   0x0800247c   0x0000000c   Code   RO          201    i.USBD_CDC_GetOtherSpeedCfgDesc  usbd_cdc.o
    0x08002488   0x08002488   0x00000088   Code   RO          202    i.USBD_CDC_Init     usbd_cdc.o
    0x08002510   0x08002510   0x00000028   Code   RO          203    i.USBD_CDC_ReceivePacket  usbd_cdc.o
    0x08002538   0x08002538   0x00000010   Code   RO          204    i.USBD_CDC_RegisterInterface  usbd_cdc.o
    0x08002548   0x08002548   0x0000000c   Code   RO          205    i.USBD_CDC_SetRxBuffer  usbd_cdc.o
    0x08002554   0x08002554   0x00000010   Code   RO          206    i.USBD_CDC_SetTxBuffer  usbd_cdc.o
    0x08002564   0x08002564   0x00000070   Code   RO          207    i.USBD_CDC_Setup    usbd_cdc.o
    0x080025d4   0x080025d4   0x00000030   Code   RO          208    i.USBD_CDC_TransmitPacket  usbd_cdc.o
    0x08002604   0x08002604   0x0000000e   Code   RO          369    i.USBD_ClrClassConfig  usbd_core.o
    0x08002612   0x08002612   0x00000010   Code   RO           13    i.USBD_CtlContinueRx  usbd_ioreq.o
    0x08002622   0x08002622   0x00000010   Code   RO           14    i.USBD_CtlContinueSendData  usbd_ioreq.o
    0x08002632   0x08002632   0x00000016   Code   RO          304    i.USBD_CtlError     usbd_ctlreq.o
    0x08002648   0x08002648   0x0000001e   Code   RO           15    i.USBD_CtlPrepareRx  usbd_ioreq.o
    0x08002666   0x08002666   0x00000016   Code   RO           16    i.USBD_CtlReceiveStatus  usbd_ioreq.o
    0x0800267c   0x0800267c   0x0000001a   Code   RO           17    i.USBD_CtlSendData  usbd_ioreq.o
    0x08002696   0x08002696   0x00000016   Code   RO           18    i.USBD_CtlSendStatus  usbd_ioreq.o
    0x080026ac   0x080026ac   0x00000020   Code   RO          675    i.USBD_FS_ConfigStrDescriptor  usbd_desc.o
    0x080026cc   0x080026cc   0x0000000c   Code   RO          676    i.USBD_FS_DeviceDescriptor  usbd_desc.o
    0x080026d8   0x080026d8   0x00000024   Code   RO          677    i.USBD_FS_InterfaceStrDescriptor  usbd_desc.o
    0x080026fc   0x080026fc   0x0000000c   Code   RO          678    i.USBD_FS_LangIDStrDescriptor  usbd_desc.o
    0x08002708   0x08002708   0x00000028   Code   RO          679    i.USBD_FS_ManufacturerStrDescriptor  usbd_desc.o
    0x08002730   0x08002730   0x0000002c   Code   RO          680    i.USBD_FS_ProductStrDescriptor  usbd_desc.o
    0x0800275c   0x0800275c   0x00000024   Code   RO          681    i.USBD_FS_SerialStrDescriptor  usbd_desc.o
    0x08002780   0x08002780   0x000000e0   Code   RO          305    i.USBD_GetDescriptor  usbd_ctlreq.o
    0x08002860   0x08002860   0x00000046   Code   RO          306    i.USBD_GetString    usbd_ctlreq.o
    0x080028a6   0x080028a6   0x0000002a   Code   RO          371    i.USBD_Init         usbd_core.o
    0x080028d0   0x080028d0   0x00000020   Code   RO          756    i.USBD_LL_ClearStallEP  usbd_conf.o
    0x080028f0   0x080028f0   0x00000020   Code   RO          757    i.USBD_LL_CloseEP   usbd_conf.o
    0x08002910   0x08002910   0x000000aa   Code   RO          372    i.USBD_LL_DataInStage  usbd_core.o
    0x080029ba   0x080029ba   0x0000006a   Code   RO          373    i.USBD_LL_DataOutStage  usbd_core.o
    0x08002a24   0x08002a24   0x00000004   Code   RO          374    i.USBD_LL_DevConnected  usbd_core.o
    0x08002a28   0x08002a28   0x00000016   Code   RO          375    i.USBD_LL_DevDisconnected  usbd_core.o
    0x08002a3e   0x08002a3e   0x00000008   Code   RO          761    i.USBD_LL_GetRxDataSize  usbd_conf.o
    0x08002a46   0x08002a46   0x00000002   PAD
    0x08002a48   0x08002a48   0x0000007c   Code   RO          762    i.USBD_LL_Init      usbd_conf.o
    0x08002ac4   0x08002ac4   0x00000020   Code   RO          763    i.USBD_LL_IsStallEP  usbd_conf.o
    0x08002ae4   0x08002ae4   0x00000004   Code   RO          376    i.USBD_LL_IsoINIncomplete  usbd_core.o
    0x08002ae8   0x08002ae8   0x00000004   Code   RO          377    i.USBD_LL_IsoOUTIncomplete  usbd_core.o
    0x08002aec   0x08002aec   0x00000026   Code   RO          764    i.USBD_LL_OpenEP    usbd_conf.o
    0x08002b12   0x08002b12   0x00000020   Code   RO          765    i.USBD_LL_PrepareReceive  usbd_conf.o
    0x08002b32   0x08002b32   0x0000003e   Code   RO          378    i.USBD_LL_Reset     usbd_core.o
    0x08002b70   0x08002b70   0x0000000c   Code   RO          379    i.USBD_LL_Resume    usbd_core.o
    0x08002b7c   0x08002b7c   0x00000018   Code   RO          380    i.USBD_LL_SOF       usbd_core.o
    0x08002b94   0x08002b94   0x00000006   Code   RO          381    i.USBD_LL_SetSpeed  usbd_core.o
    0x08002b9a   0x08002b9a   0x00000020   Code   RO          766    i.USBD_LL_SetUSBAddress  usbd_conf.o
    0x08002bba   0x08002bba   0x0000005a   Code   RO          382    i.USBD_LL_SetupStage  usbd_core.o
    0x08002c14   0x08002c14   0x00000020   Code   RO          767    i.USBD_LL_StallEP   usbd_conf.o
    0x08002c34   0x08002c34   0x00000020   Code   RO          768    i.USBD_LL_Start     usbd_conf.o
    0x08002c54   0x08002c54   0x00000012   Code   RO          383    i.USBD_LL_Suspend   usbd_core.o
    0x08002c66   0x08002c66   0x00000020   Code   RO          770    i.USBD_LL_Transmit  usbd_conf.o
    0x08002c86   0x08002c86   0x00000028   Code   RO          307    i.USBD_ParseSetupRequest  usbd_ctlreq.o
    0x08002cae   0x08002cae   0x00000010   Code   RO          384    i.USBD_RegisterClass  usbd_core.o
    0x08002cbe   0x08002cbe   0x00000016   Code   RO          386    i.USBD_SetClassConfig  usbd_core.o
    0x08002cd4   0x08002cd4   0x00000074   Code   RO          308    i.USBD_SetConfig    usbd_ctlreq.o
    0x08002d48   0x08002d48   0x0000000a   Code   RO          387    i.USBD_Start        usbd_core.o
    0x08002d52   0x08002d52   0x000000f2   Code   RO          309    i.USBD_StdDevReq    usbd_ctlreq.o
    0x08002e44   0x08002e44   0x000000dc   Code   RO          310    i.USBD_StdEPReq     usbd_ctlreq.o
    0x08002f20   0x08002f20   0x00000034   Code   RO          311    i.USBD_StdItfReq    usbd_ctlreq.o
    0x08002f54   0x08002f54   0x00000080   Code   RO         2345    i.USB_ActivateEndpoint  stm32f4xx_ll_usb.o
    0x08002fd4   0x08002fd4   0x00000034   Code   RO         2346    i.USB_ActivateSetup  stm32f4xx_ll_usb.o
    0x08003008   0x08003008   0x0000006c   Code   RO         2348    i.USB_CoreInit      stm32f4xx_ll_usb.o
    0x08003074   0x08003074   0x00000038   Code   RO         2349    i.USB_CoreReset     stm32f4xx_ll_usb.o
    0x080030ac   0x080030ac   0x000000c8   Code   RO         2351    i.USB_DeactivateEndpoint  stm32f4xx_ll_usb.o
    0x08003174   0x08003174   0x00000018   Code   RO         2352    i.USB_DevConnect    stm32f4xx_ll_usb.o
    0x0800318c   0x0800318c   0x00000018   Code   RO         2353    i.USB_DevDisconnect  stm32f4xx_ll_usb.o
    0x080031a4   0x080031a4   0x00000140   Code   RO         2354    i.USB_DevInit       stm32f4xx_ll_usb.o
    0x080032e4   0x080032e4   0x0000000c   Code   RO         2355    i.USB_DisableGlobalInt  stm32f4xx_ll_usb.o
    0x080032f0   0x080032f0   0x00000140   Code   RO         2358    i.USB_EP0StartXfer  stm32f4xx_ll_usb.o
    0x08003430   0x08003430   0x0000003e   Code   RO         2359    i.USB_EP0_OutStart  stm32f4xx_ll_usb.o
    0x0800346e   0x0800346e   0x00000064   Code   RO         2360    i.USB_EPClearStall  stm32f4xx_ll_usb.o
    0x080034d2   0x080034d2   0x0000005e   Code   RO         2361    i.USB_EPSetStall    stm32f4xx_ll_usb.o
    0x08003530   0x08003530   0x0000021c   Code   RO         2362    i.USB_EPStartXfer   stm32f4xx_ll_usb.o
    0x0800374c   0x0800374c   0x0000000c   Code   RO         2363    i.USB_EnableGlobalInt  stm32f4xx_ll_usb.o
    0x08003758   0x08003758   0x00000020   Code   RO         2364    i.USB_FlushRxFifo   stm32f4xx_ll_usb.o
    0x08003778   0x08003778   0x00000024   Code   RO         2365    i.USB_FlushTxFifo   stm32f4xx_ll_usb.o
    0x0800379c   0x0800379c   0x0000003c   Code   RO         2367    i.USB_GetDevSpeed   stm32f4xx_ll_usb.o
    0x080037d8   0x080037d8   0x00000008   Code   RO         2369    i.USB_GetMode       stm32f4xx_ll_usb.o
    0x080037e0   0x080037e0   0x0000000e   Code   RO         2376    i.USB_ReadDevAllInEpInterrupt  stm32f4xx_ll_usb.o
    0x080037ee   0x080037ee   0x0000000e   Code   RO         2377    i.USB_ReadDevAllOutEpInterrupt  stm32f4xx_ll_usb.o
    0x080037fc   0x080037fc   0x0000001e   Code   RO         2378    i.USB_ReadDevInEPInterrupt  stm32f4xx_ll_usb.o
    0x0800381a   0x0800381a   0x00000010   Code   RO         2379    i.USB_ReadDevOutEPInterrupt  stm32f4xx_ll_usb.o
    0x0800382a   0x0800382a   0x00000008   Code   RO         2380    i.USB_ReadInterrupts  stm32f4xx_ll_usb.o
    0x08003832   0x08003832   0x00000020   Code   RO         2381    i.USB_ReadPacket    stm32f4xx_ll_usb.o
    0x08003852   0x08003852   0x0000002c   Code   RO         2383    i.USB_SetCurrentMode  stm32f4xx_ll_usb.o
    0x0800387e   0x0800387e   0x00000022   Code   RO         2384    i.USB_SetDevAddress  stm32f4xx_ll_usb.o
    0x080038a0   0x080038a0   0x00000028   Code   RO         2388    i.USB_WritePacket   stm32f4xx_ll_usb.o
    0x080038c8   0x080038c8   0x00000002   Code   RO          597    i.UsageFault_Handler  stm32f4xx_it.o
    0x080038ca   0x080038ca   0x00000002   Code   RO          958    i._Error_Handler    main.o
    0x080038cc   0x080038cc   0x00000028   Code   RO         3838    i.__0sprintf$6      mc_w.l(printf6.o)
    0x080038f4   0x080038f4   0x0000000e   Code   RO         4035    i.__scatterload_copy  mc_w.l(handlers.o)
    0x08003902   0x08003902   0x00000002   Code   RO         4036    i.__scatterload_null  mc_w.l(handlers.o)
    0x08003904   0x08003904   0x0000000e   Code   RO         4037    i.__scatterload_zeroinit  mc_w.l(handlers.o)
    0x08003912   0x08003912   0x00000002   PAD
    0x08003914   0x08003914   0x000002f0   Code   RO         3843    i._printf_core      mc_w.l(printf6.o)
    0x08003c04   0x08003c04   0x00000024   Code   RO         3844    i._printf_post_padding  mc_w.l(printf6.o)
    0x08003c28   0x08003c28   0x0000002e   Code   RO         3845    i._printf_pre_padding  mc_w.l(printf6.o)
    0x08003c56   0x08003c56   0x0000000a   Code   RO         3847    i._sputc            mc_w.l(printf6.o)
    0x08003c60   0x08003c60   0x00000040   Code   RO          959    i.char_to_port      main.o
    0x08003ca0   0x08003ca0   0x00000050   Code   RO         3942    i.free              mc_w.l(malloc.o)
    0x08003cf0   0x08003cf0   0x00000016   Code   RO          960    i.main              main.o
    0x08003d06   0x08003d06   0x00000002   PAD
    0x08003d08   0x08003d08   0x0000006c   Code   RO         3943    i.malloc            mc_w.l(malloc.o)
    0x08003d74   0x08003d74   0x000000c0   Code   RO          961    i.parser            main.o
    0x08003e34   0x08003e34   0x0000004c   Code   RO          962    i.port_to_char      main.o
    0x08003e80   0x08003e80   0x00000020   Code   RO          963    i.print_error       main.o
    0x08003ea0   0x08003ea0   0x00000034   Code   RO          964    i.print_ok          main.o
    0x08003ed4   0x08003ed4   0x00000010   Data   RO         3639    .constdata          system_stm32f4xx.o
    0x08003ee4   0x08003ee4   0x00000040   Data   RO         4031    .constdata          mc_w.l(ctype_c.o)
    0x08003f24   0x08003f24   0x00000020   Data   RO         4033    Region$$Table       anon$$obj.o


    Execution Region RW_IRAM1 (Exec base: 0x20000000, Load base: 0x08003f44, Size: 0x00002580, Max: 0x00020000, ABSOLUTE, COMPRESSED[0x000001b4])

    Exec Addr    Load Addr    Size         Type   Attr      Idx    E Section Name        Object

    0x20000000   COMPRESSED   0x000000db   Data   RW          209    .data               usbd_cdc.o
    0x200000db   COMPRESSED   0x00000001   PAD
    0x200000dc   COMPRESSED   0x00000038   Data   RW          210    .data               usbd_cdc.o
    0x20000114   COMPRESSED   0x00000001   Data   RW          312    .data               usbd_ctlreq.o
    0x20000115   COMPRESSED   0x00000003   PAD
    0x20000118   COMPRESSED   0x0000001c   Data   RW          683    .data               usbd_desc.o
    0x20000134   COMPRESSED   0x00000016   Data   RW          684    .data               usbd_desc.o
    0x2000014a   COMPRESSED   0x00000002   PAD
    0x2000014c   COMPRESSED   0x00000260   Data   RW          966    .data               main.o
    0x200003ac   COMPRESSED   0x00000010   Data   RW         1070    .data               usbd_cdc_if.o
    0x200003bc   COMPRESSED   0x0000000c   Data   RW         1225    .data               stm32f4xx_hal.o
    0x200003c8   COMPRESSED   0x00000004   Data   RW         3641    .data               system_stm32f4xx.o
    0x200003cc   COMPRESSED   0x00000004   Data   RW         3999    .data               mc_w.l(mvars.o)
    0x200003d0   COMPRESSED   0x00000004   Data   RW         4000    .data               mc_w.l(mvars.o)
    0x200003d4        -       0x00000224   Zero   RW          508    .bss                usb_device.o
    0x200005f8        -       0x0000003c   Zero   RW          548    .bss                tim.o
    0x20000634        -       0x00000200   Zero   RW          682    .bss                usbd_desc.o
    0x20000834        -       0x000003f0   Zero   RW          771    .bss                usbd_conf.o
    0x20000c24        -       0x0000015b   Zero   RW          965    .bss                main.o
    0x20000d7f        -       0x00001000   Zero   RW         1069    .bss                usbd_cdc_if.o
    0x20001d7f   COMPRESSED   0x00000001   PAD
    0x20001d80        -       0x00000400   Zero   RW            2    HEAP                startup_stm32f411xe.o
    0x20002180        -       0x00000400   Zero   RW            1    STACK               startup_stm32f411xe.o


==============================================================================

Image component sizes


      Code (inc. data)   RO Data    RW Data    ZI Data      Debug   Object Name

       336         26          0          0          0       1083   gpio.o
       668        124          0        608        347       6117   main.o
        36          8        408          0       2048        820   startup_stm32f411xe.o
       180         28          0         12          0       4477   stm32f4xx_hal.o
       228         14          0          0          0      32017   stm32f4xx_hal_cortex.o
       402         34          0          0          0       2360   stm32f4xx_hal_gpio.o
        88          0          0          0          0        510   stm32f4xx_hal_msp.o
      2156         72          0          0          0      11157   stm32f4xx_hal_pcd.o
        76          0          0          0          0       1804   stm32f4xx_hal_pcd_ex.o
      1208         58          0          0          0       4366   stm32f4xx_hal_rcc.o
       912         30          0          0          0       9059   stm32f4xx_hal_tim.o
        84          0          0          0          0       2358   stm32f4xx_hal_tim_ex.o
        54         12          0          0          0       4905   stm32f4xx_it.o
      2420         56          0          0          0      19988   stm32f4xx_ll_usb.o
        84         18         16          4          0       1119   system_stm32f4xx.o
       176         34          0          0         60       1582   tim.o
        56         18          0          0        548       2351   usb_device.o
       590         22          0        275          0      12854   usbd_cdc.o
       136         24          0         16       4096       3328   usbd_cdc_if.o
       706         38          0          0       1008      14130   usbd_conf.o
       626          0          0          0          0      11758   usbd_core.o
       986         30          0          1          0       7864   usbd_ctlreq.o
       212        116          0         50        512       5015   usbd_desc.o
       132          0          0          0          0     418108   usbd_ioreq.o

    ----------------------------------------------------------------------
     12570        762        456        972       8620     579130   Object Totals
         0          0         32          0          0          0   (incl. Generated)
        18          0          0          6          1          0   (incl. Padding)

    ----------------------------------------------------------------------

      Code (inc. data)   RO Data    RW Data    ZI Data      Debug   Library Member Name

        56          8          0          0          0         84   __0sscanf.o
        94          0          0          0          0          0   __dclz77c.o
        28          0          0          0          0         68   _chval.o
       812          4          0          0          0        112   _scanf.o
       332          0          0          0          0         96   _scanf_int.o
       224          0          0          0          0         96   _scanf_str.o
        64          0          0          0          0         84   _sgetc.o
        40          6         64          0          0         68   ctype_c.o
         0          0          0          0          0          0   entry.o
         0          0          0          0          0          0   entry10a.o
         0          0          0          0          0          0   entry11a.o
         8          4          0          0          0          0   entry2.o
         4          0          0          0          0          0   entry5.o
         0          0          0          0          0          0   entry7b.o
         0          0          0          0          0          0   entry8b.o
         8          4          0          0          0          0   entry9a.o
        30          0          0          0          0          0   handlers.o
        36          8          0          0          0         68   init.o
        10          0          0          0          0         68   isspace_c.o
        30          0          0          0          0         68   llshl.o
        32          0          0          0          0         68   llushr.o
       188         20          0          0          0        160   malloc.o
        36          0          0          0          0         68   memcpya.o
         0          0          0          8          0          0   mvars.o
       884         10          0          0          0        420   printf6.o
        40          8          0          0          0         84   scanf_char.o
        44          0          0          0          0         80   uidiv.o
        98          0          0          0          0         92   uldiv.o

    ----------------------------------------------------------------------
      3106         72         64          8          0       1784   Library Totals
         8          0          0          0          0          0   (incl. Padding)

    ----------------------------------------------------------------------

      Code (inc. data)   RO Data    RW Data    ZI Data      Debug   Library Name

      3098         72         64          8          0       1784   mc_w.l

    ----------------------------------------------------------------------
      3106         72         64          8          0       1784   Library Totals

    ----------------------------------------------------------------------

==============================================================================


      Code (inc. data)   RO Data    RW Data    ZI Data      Debug   

     15676        834        520        980       8620     562662   Grand Totals
     15676        834        520        436       8620     562662   ELF Image Totals (compressed)
     15676        834        520        436          0          0   ROM Totals

==============================================================================

    Total RO  Size (Code + RO Data)                16196 (  15.82kB)
    Total RW  Size (RW Data + ZI Data)              9600 (   9.38kB)
    Total ROM Size (Code + RO Data + RW Data)      16632 (  16.24kB)

==============================================================================

